:020000040800F2
:100000001808002001010008D54D0008393D0008FE
:10001000114D0008A50D0008115400080000000053
:10002000000000000000000000000000055400086F
:10003000FD0E0008000000000154000809540008EB
:100040001B0100081B0100081B0100081B01000820
:100050001B0100081B0100081B0100081B01000810
:100060001B0100081B0100081B0100081B01000800
:100070001B0100081B0100081B0100081B010008F0
:100080001B0100081B010008950C00081B0100085B
:100090001B0100081B0100081B0100081B010008D0
:1000A0001B0100081B0100081B0100081B010008C0
:1000B0001B0100081B0100081B0100081B010008B0
:1000C0001B010008493D00083D3D00081B010008D8
:1000D0001B0100081B0100081B0100081B01000890
:1000E0001B0100081B0100081B010008DFF80CD0F1
:1000F00000F098FD00480047F55800081808002057
:100100000648804706480047FEE7FEE7FEE7FEE7B1
:10011000FEE7FEE7FEE7FEE7FEE7FEE70D54000818
:10012000ED000008F0B480EA0102D40F4200B2EB07
:10013000410F02D20246084611464A0042D0C30D82
:10014000DDB2C1F3C752AD1A202D35DAC1F3160165
:1001500041F4000204B15242C5F1200602FA06F150
:100160002A411044B3EBD05F23D0C4B1012DA0EBE2
:10017000C35009DCF0BC4FF0004202EAC352DBB2CC
:1001800000F5000000F0BFBB400000F1807000EB04
:10019000C350A0F1807040EAD170490009E04908DD
:1001A00041EAC071A0EBC35000F50000400800EB2D
:1001B000C350F0BC00F09EBB6142012202EB410142
:1001C000001BF6E7F0BC704781F00041AAE780F021
:1001D0000040A7E780EA010210B502F000434000AA
:1001E00022D04A001FD0010E01EB1261C0F356006D
:1001F000C2F3560240F4000042F40002A0FB0220C9
:1002000000047F39140400D0401C50EA124001D48D
:100210004000491EC2B20C0604EBD010401C40083E
:10022000802A02D003E0002010BD20F00100002948
:1002300000DA0020184310BD30B480EA010202F059
:10024000004530F0004221F0004013D090B1C30DC2
:10025000D40DC2F31601C0F31600E41A41F40001F4
:1002600040F400027D34914201D3641C00E0490057
:10027000002C02DA30BC002070474FF4000000234D
:10028000914201D3891A034340084FEA4101F7D153
:1002900051B1914202D14FF0004105E002D24FF03E
:1002A000010101E06FF0010103EBC450284430BCB0
:1002B00000F020BB2DE9FE4F804681EA0300C00F0D
:1002C0000C46009021F0004123F00045B8EB0200FD
:1002D000A94105D24046214690461C460B4602469F
:1002E00023F00040104347D0270DC7F30A00C3F3A3
:1002F0000A510290401A019040286BDAC3F31300B0
:1003000040F4801B0098924620B10023D2EB030AF0
:1003100063EB0B0B01985946C0F14002504600F0C8
:10032000A6FA06460D4650465946019A00F0BEFA16
:1003300010EB08006141002487EA115284EAE77358
:100340001A4340D0009A62B3019A012A4FEA075239
:1003500015DC001B61EB02014FF0004202EA07527C
:10036000CDE90042001C41F5801132462B4600F0D9
:1003700007FB03B0BDE8F08F40462146F9E7001BBC
:1003800061EB0201001C41F5801300185B4120184D
:10039000A2F5001747EB030140EAD570B6196D418D
:1003A00011E06D084FEA360645EAC0754FEA07527C
:1003B000001B61EB0201001C41F5801149084FEA66
:1003C00030000019514132462B4603B0BDE8F04FD2
:1003D00000F0C7BA0098012240000023D0EB0202CF
:1003E00063EBE073009821464FEAE074B8EB00003D
:1003F00061EB0401E9E783F000435BE781F0004132
:1004000058E72DE9FE4F81EA030404F0004421F08F
:10041000004100944FF0000B23F0004350EA010428
:100420005ED052EA03045BD0C3F30A54C1F30A5509
:100430002C44A4F2F3340194A0FB0254C1F3130141
:1004400041F48011C3F3130343F4801301FB02440E
:1004500000FB034E840A970A44EA815447EA835713
:10046000A4FB076802958D0A05FB07854FEA932CCC
:1004700004FB0C542705029D4FEA065847EA16373D
:10048000B5EB08056EEB070C870E920E47EA811755
:1004900042EA8312A7FB0201B6EB0B0164EB0004F6
:1004A0002B0D43EA0C335E1844EB1C50DA465146E0
:1004B000E7FB0201C5F313044FEA0B3343EA14537D
:1004C0004FEA0432019C43EA0603A4F10C040294AF
:1004D000009CCDE900B400F053FA03B0BDE8F08F02
:1004E00000200146F9E72DE9F04D81EA030404F00C
:1004F000004B21F0004514464FF0000A23F0004164
:1005000050EA050220D054EA01021DD0C5F30A5773
:100510000246C5F31303C1F31300C1F30A5640F4B6
:10052000801543F48013A7EB0608101BD64608F28B
:10053000FD3873EB050002D308F1010801E09218C1
:100540005B41B8F1000F03DA00200146BDE8F08DF1
:1005500000204FF48011064684460EE0171B73EB13
:10056000050705D3121B63EB050306434CEA010C98
:1005700049084FEA300092185B4150EA0107EDD17B
:1005800052EA030012D082EA040083EA050108431C
:1005900005D0101BAB4106D20122002306E0002249
:1005A0004FF0004302E06FF0010253101AEB060017
:1005B0004CEB085110EB0A0041EB0B01BDE8F04D8C
:1005C00000F0CFB9002801DBC0F10040002901DBB9
:1005D000C1F10041814201D80120704700207047DD
:1005E000002801DBC0F10040002901DBC1F100411E
:1005F000814201D20120704700207047002801DBB2
:10060000C0F10040002901DBC1F10041814201D36A
:100610000120704700207047002801DBC0F1004036
:10062000002901DBC1F10041814201D9012070475D
:1006300000207047002801DBC0F10040002901DBE9
:10064000C1F10041814201D1012070470020704773
:1006500030B5041E71F1000404DB4FF00044404249
:1006600064EB0101141E73F1000405DB1C464FF01E
:100670000043524263EB0403801A994101D30120E5
:1006800030BD002030BD30B5041E71F1000404DB24
:100690004FF00044404264EB0101141E73F100046A
:1006A00005DB1C464FF00043524263EB0403101A73
:1006B0008B4101D2012030BD002030BD30B5041E79
:1006C00071F1000404DB4FF00044404264EB01018F
:1006D000141E73F1000405DB1C464FF00043524228
:1006E00063EB0403801A994101D2012030BD002040
:1006F00030BDC10F80EAE0700844CA07962300218C
:1007000000F001B996230022114600F0FCB80EB5A6
:1007100040F2334102910021CDE900110A460B4617
:1007200000F02EF903B000BD20F00040C10DC0F371
:10073000160040F400007F2901DA00207047962956
:1007400003DCC1F19601C840704796398840704774
:10075000C1F30A5210B5C1F3130140F2FF3341F463
:1007600080119A4201DA002010BD40F233439A42D0
:10077000A2F2334203DC524200F088F810BD9040F0
:1007800010BD00F0004230F000400AD0C10D01F56C
:100790006071C0F3160042EA0151C20840071143DC
:1007A000704700200146704701F0004330B421F04B
:1007B000004150EA010206D00A0DA2F56072C1F3B1
:1007C0001301002A02DC30BC00207047440F44EAC9
:1007D000C104C100E01830BC00EBC25000F08AB880
:1007E00030B50B46014600202022012409E021FA01
:1007F00002F59D4205D303FA02F5491B04FA02F5FE
:100800002844151EA2F10102F1DC30BD2DE9F05F94
:100810000546002092469B4688460646814640246F
:100820001BE0284641464746224600F02FF8534633
:100830005A46C01A914110D311461846224600F07C
:1008400016F82D1A67EB01084F46224601200021B9
:1008500000F00DF817EB00094E41201EA4F1010431
:10086000DFDC484631462A464346BDE8F09F202A51
:1008700004DB203A00FA02F1002070479140C2F1F7
:10088000200320FA03F3194390407047202A04DB29
:10089000203A21FA02F00021704721FA02F3D040F9
:1008A000C2F120029140084319467047202A06DB16
:1008B000CB17203A41FA02F043EAE07306E041FA2E
:1008C00002F3D040C2F1200291400843194670471C
:1008D00010B50446481E014201D1042901D2052069
:1008E00010BD104605F06AFB10B12060002010BD5D
:1008F000062010BD0029A8BF7047401C490008BF52
:1009000020F00100704710B4B0FA80FC00FA0CF03F
:1009100050EA010404BF10BC704749B1CCF1200477
:1009200021FA04F411FA0CF118BF01212143084304
:10093000A3EB0C01CB1D4FEA00614FEA102042BF30
:10094000002010BC704700EBC35010440029A4BF26
:1009500010BC7047401C490008BF20F0010010BCCB
:10096000704710B5141E73F1000408DA401C41F101
:10097000000192185B411A4301D120F0010010BD23
:100980002DE9F04D92469B4611B1B1FA81F202E099
:10099000B0FA80F220329046FFF769FF04460F4616
:1009A00040EA0A0041EA0B0153465A46084313D075
:1009B000114653EA010019D0C8F140025046FFF732
:1009C00065FF05460E46504659464246FFF74FFF23
:1009D000084305D0012004E020463946BDE8F08DEB
:1009E0000020054346EAE0762C4337430A98630526
:1009F000E40AA0EB08000022FD0A44EA47540A304A
:100A000002D500200146E9E7010510196941DDE939
:100A1000084500196941BDE8F04DA2E770B521F025
:100A2000004303430CD0C1F30A550024D5EB040561
:100A300064EB0403D617AD1AB34102DB0020014674
:100A400070BD201841EB025170BD2DE9F04D00231F
:100A50001A461B1A8A4103DB00200146BDE8F08DCF
:100A6000C1F30A52C1F3130141F480154FF0000B9A
:100A7000D10702D100186D41521E0027044640F2F2
:100A8000FF11384601EB620A3E46804602460020CE
:100A90004FF48011FFF7FAFEC2197141BB1846EB03
:100AA0000100B4EB030C75EB000C04D3E41A65EB06
:100AB000000517460E46241908F101006D418046D5
:100AC0003428E3DDF91946EB0600091BA84103D2DF
:100AD0004FF0FF32134601E0002213461BEB0700E4
:100AE00046EB0A51BDE8F04DFFF73BBF2DE9FE4F45
:100AF000C3F30A5701F000450024C1F30A56C3F3BB
:100B00001303C1F3130143F4801312EB020AA64648
:100B100041F48011009543EB030CA7F1010B16E0A3
:100B2000B0EB0A0061EB0C01071E71F1000707DA58
:100B30004FF00008D0EB080085F0004568EB01019C
:100B4000171A73EB0107EBD3761E001849415E4577
:100B5000F6DA50EA010209D0CDE900E50022134699
:100B60000296FFF70DFF03B0BDE8F08F2046009915
:100B7000F9E70EB5C10F80EAE0700844CA0700210A
:100B800040F233438DE80E000A460B46FFF7F8FEAD
:100B900003B000BDC1F30A52C1F3130140F2FF33A9
:100BA00041F480119A4202DA00200146704740F277
:100BB00033439A42A2F2334202DC5242FFF766BE4E
:100BC000FFF755BE30B5041E71F1000404DB4FF091
:100BD0000044404264EB0101141E73F1000405DB84
:100BE0001C464FF00043524263EB04038B4208BFA4
:100BF000824230BD30B5041E71F1000404DB4FF0B9
:100C00000044404264EB0101141E73F1000405DB53
:100C10001C464FF00043524263EB0403994208BF65
:100C2000904230BD1CB50948009009480190054626
:100C3000009C06E0E06840F0010394E80700984754
:100C40001034AC42F6D3FFF755FA0000547E00088A
:100C5000747E000870B5C1F30A5201F0004500240B
:100C6000C1F3130140F2FF3341F480119A4201DADB
:100C7000002070BD40F233439A42A2F2334203DCBB
:100C80005242FFF703FE00E090402C43F1D0404277
:100C900070BD000040F23800C2F2000000F08ABCD3
:100CA000B0B5044600688168C90709D0816821F0A1
:100CB0000101816000F04EFF21688968C90701D1F8
:100CC0000020B0BD054602E08068C007F8D000F003
:100CD00041FF411B20680329F6D38168C907F3D07F
:100CE000A06A40F01000A062E06A40F00100E062FB
:100CF0000120B0BDB0B582B004460020019021684B
:100D00008A68D2074BD1886840F00100886040F2C1
:100D10001C00C2F2000000684DF68361C4F21B3172
:100D2000A0FB0101880C01900198A0B10198013845
:100D30000190019878B1019801380190019850B163
:100D4000019801380190019828B10198013801906B
:100D500001980028EAD100F0FDFE21688968C907E2
:100D60001CD1054603E000BF8068C00716D100F023
:100D7000F1FE411B20680329F6D38168C907F3D12E
:100D8000A06A40F01000A062E06A40F00100E0625A
:100D9000002084F82400012002B0B0BD002002B081
:100DA000B0BD0000FEE700000021C4F248214DF272
:100DB0000A724FF08043C3F62342C0E900130021BA
:100DC000C0E90B23C0E90233C0E907114162704753
:100DD0002DE9F0411546D0E927720446D0F83C8051
:100DE00008461146FFF7F0F9064628463946FFF750
:100DF000EBF905464046314604F0E6FA216CC4F8AA
:100E000098000846294604F0DFFAD4F898600546B1
:100E100030464FF041414FF04147FFF7E1FB48B901
:100E200030464FF082414FF08247FFF7F5FB002834
:100E300008BF374628464FF04141C4F898704FF03C
:100E40004147FFF7CDFB48B928464FF082414FF0AC
:100E50008247FFF7E1FB002808BF2F46D4F8B060B7
:100E6000C4F8947004F0FAFDFFF74CFCE16A804688
:100E7000FFF7AAF943F2BD71C3F28651FFF7AAF951
:100E800000210746FFF79EFB054638464FF07C5190
:100E9000FFF7C2FB00281CBF41F26F27C3F6832770
:100EA0002046002D1CBF41F26F27C3F68327C4F8EC
:100EB000B06004F0A5FC0146606CA16103F044FD44
:100EC0006569A06130463946FFF784F92946FFF786
:100ED00029F904F03BFC40F21021C2F20001D4E9F0
:100EE00025560860072104F027FC024630462946B3
:100EF00004F08CFEC4F82C80BDE8F081704700003F
:100F0000EFF3108072B600BFFEE7000070B582B04C
:100F100004460020019094F82400012802D1022008
:100F200002B070BD012084F824002046FFF7B8FE0F
:100F30002046FFF7DFFE28B1002184F8241002B01C
:100F400070BD00BF0646A06A41F20211884302301C
:100F5000A06240F21C00C2F200000568022001F00D
:100F600039FDB5FBF0F0400001900198A8B100BF39
:100F7000019801380190019878B1019801380190E9
:100F8000019850B1019801380190019828B1019859
:100F90000138019001980028EAD12068816841F069
:100FA0000801816000F0D6FD21688A6812070FD41D
:100FB000886840F00400886000F0CCFD21688968F2
:100FC000490715D401216FF00302304622E000BF2B
:100FD000054602E088680007EAD500F0BBFD401B2B
:100FE00021680B28F6D388680007F3D50EE000BF10
:100FF000054602E080684007E4D500F0ABFD411BE8
:1010000020680B29F6D381684907F3D50120102108
:101010006FF01202A36A1A401143A162002184F802
:10102000241002B070BD00002DE9F04181B0002213
:10103000009290F82420012A06D14FF0020E70464B
:1010400001B0BDE8F08100BF8368D1F804C001227F
:1010500080F82420D3B1D1F810E00368BCEB0E0473
:1010600004EB84049D6B04F10F044FF01F0202FA9D
:1010700004F225EA020222F440151BD99D634FF0C9
:10108000000E9A68D2072BD123E000BFBCF1010FFC
:1010900040F0948003684FF0000E9A6B0D686FF378
:1010A000150242EAC5329A634FF0010C9A68D207E2
:1010B0000FD015E000220E68CFF6F07202EB0E5250
:1010C000A64032432A439A634FF0000E9A68D20733
:1010D00006D19A6847F201048D69A2432A439A60B7
:1010E0004D7D03F10408012D00F128022AD18E69FB
:1010F0002027B6F5E04F164614BF4FF0010E4646C6
:1011000008BF4FF4806734683C4334600C7D012C89
:101110001BD00A68092A02EB420427D9DD681E3C6D
:1011200007268F68A640B54307FA04F42C4322F043
:101130000105102DDC6022D19C6844F400049C6001
:1011400001241DE00C7D012CE3D12024002D14BFCF
:101150004FF0010E424608BF4FF4805415682C43EF
:1011600014600A68092A02EB4204D7D81D690726D1
:101170008F68A640B54307FA04F42C431C61002491
:10118000ACF1010720251426032F38BF06EB870595
:101190005F5940F6FF76C968B7433943002C59516F
:1011A00048D042F20041C4F201018B4212D0816A60
:1011B0004FF0010E41F0200181623BE00368826A3A
:1011C0004FF0010E42F0200282629A68D2073FF48B
:1011D00080AF85E7896809022CD49968102A41F408
:1011E0000001996026D140F21C01C2F20001096899
:1011F0004DF68362C4F21B32A1FB0212910C01EB8B
:101200008101490000910099A1B100990139009133
:10121000009979B1009901390091009951B1009973
:1012200001390091009929B1009901390091009983
:101230000029EAD1002180F82410704601B0BDE8F1
:10124000F08100002DE9F04F85B040F2280AC2F28B
:10125000000A0AF11001884202D005B0BDE8F08F03
:10126000DAF8100040F22008C16BC2F20008AAF8B8
:101270000010066CAAF80260476CD8F8004088B2EB
:10128000AAF80470FFF73EFAB4F57A7F2EDA40F23E
:101290000009C4F27A494946FEF7CEFF40F25415E0
:1012A000C2F20005D5E91F1BD5F884A0FEF73AFF6E
:1012B000E867B0B2FFF726FA4946FEF7BDFF594688
:1012C000FEF730FFC5F88000B8B2FFF71BFA4946B9
:1012D000FEF7B2FF5146FEF725FFC5F88400601CFB
:1012E000C8F8000005B0BDE8F08F00BF40F254120E
:1012F000C2F20002D16F146ED2F884609346FEF7FA
:1013000063FF43F23338C4F253084146FEF762FFED
:101310004FF06651FEF75EFF01462046FEF75AFF8A
:101320000546CBF87000B8B2FFF7ECF93146FEF78E
:101330004BFF4146FEF74EFF4FF06651FEF74AFF66
:1013400001462046FEF746FF0446CBF878002846C3
:101350002146FEF7E7FE80F000464FF07C51CBF8C7
:101360007460FEF737FF01462846FEF7DBFE0546B0
:1013700020464FF07C51FEF72DFF01462846FEF730
:1013800023FFCAF808003046FFF7FBF946F26B0866
:101390004BF27A69CEF65808C3F6FB7942464B46C3
:1013A000FFF72FF80027C3F6E07700223B46FFF750
:1013B00028F8054620460E46FFF7E3F942464B461D
:1013C000FFF71FF800223B46FFF71BF802460B46CB
:1013D00028463146FFF70FF8FFF7E6F9CAF80C0088
:1013E00004F0ECF9FFF793F948F65D1242F20F238F
:1013F000CFF24052C3F65973FFF703F8FFF7D4F961
:101400000146DBF85C00CBF81410FEF78BFE0721D9
:1014100004F092F904F09AF9FFF7B3F907468B4606
:1014200005F092FF8046DAF808000191FFF7A9F96C
:101430000446049000913846594606F01DF881464E
:10144000DAF80C008A46FFF79CF9024602900B4638
:10145000039148465146FEF7D4FF05464046DDF865
:1014600000800E46019922464346FEF7CAFF2A46EF
:101470003346FEF71FFFFFF797F940F2541AC2F206
:10148000000A8146CAF89C003846594605F0F4FF28
:1014900006460D463846594605F056FFDDE902235B
:1014A000FEF7AFFF049A04460F46304629464346EE
:1014B000FEF7A7FF02460B4620463946FEF79BFF84
:1014C000FFF772F9DAF84C10CAF8A000084649464E
:1014D00003F03AFADAF84820DAF8A010CAF89C00CB
:1014E000104603F031FA01465046CAF8A01005B084
:1014F000BDE8F04F04F0DABA10B5044690F82400C5
:10150000012804BF022010BD012084F824002046D9
:10151000FFF7F0FB20B1002184F8241010BD00BFBC
:1015200042F204422168A06AC4F2010243F20103BC
:10153000984302F57F7300F580509942A06203D072
:10154000A06A20F4801006E0106810F4702FF7D025
:10155000A06A40F48010A062A06AC0055CBF0020B1
:10156000E062002084F824006FF004040C604C68F2
:1015700044F080044C604C68640548BF10BD886826
:1015800000F4E040B0F5E04F0CD1994206D08868F5
:1015900040F402108860002010BD00BF106810F4F5
:1015A000702FF4D0886840F400408860002010BD9F
:1015B0007047000070B50446006805684668B106CB
:1015C00027D515F0020124D0A16AC90603D4A16A67
:1015D00041F40071A162816801F46021B1F5602FCE
:1015E00010D1217B71B9416821F020014160A06ACE
:1015F00020F48070A062A06AC00403D4A06A40F006
:101600000100A0622046FFF7D3FF20686FF01201AF
:101610000160310633D515F0040130D0A16AC90646
:1016200003D4A16A41F40051A162816801F4E04150
:10163000B1F5E04F10D1416821F080014160A06A0E
:1016400020F48050A062A06AC00511D4A06A40F0C6
:101650000100A0620CE000BF4168490508D4816820
:1016600001F46021B1F5602F02D1217B0029E2D085
:101670002046FFF7E7FD20686FF00C01016070065F
:101680000ED515F0010008BF70BDA06A40F480308F
:10169000A062204600F0B2F820686FF001010160FE
:1016A00070BD0000002804BF01207047B0B504469B
:1016B000806A28B121688868C0070CD115E000BF96
:1016C0000020E06284F82400204600F099F82168A8
:1016D0008868C00709D0886820F00100886000F0A1
:1016E00039FA21688A68D20726D1A06AC0063AD49E
:1016F000A06A41F2021290430230A062E069D4E98C
:10170000013240EA030C531EB3FA83F35D0913461A
:10171000B2F5807F18BF2B02207D257B01284CEA83
:1017200045002CD135B3A56A45F02005A562E56AD0
:1017300045F00105E56222E0054602E08868C00741
:10174000D3D000F007FA401B21680328F6D388683D
:10175000C007F3D0A06A40F01000A062E06A40F039
:101760000100E062A06AA06A40F01000A0620120BF
:10177000B0BD00BFA56903EB4533A3F5C0534D6869
:10178000B2F5807F25F4694543EA05034B608B6819
:101790004FF2FD75CFF6E17503EA050343EA000356
:1017A0008B6001D0012A07D122690023CFF6F073A4
:1017B00003EB025201E000BF0022CB6A23F4700366
:1017C0001A43CA62896840F6FE62CFF61F72114062
:1017D000814207D10020E062A16A012262F3010187
:1017E000A162B0BDA06A40F0100020F00200A0622B
:1017F000E06A40F00100E0620120B0BD70470000E7
:1018000080B586B0014640F60000C4F201000968C8
:1018100000F5E05291424FF00001CDE90411CDE90D
:10182000021101D006B080BD41F21801C4F20201DC
:101830000A6842F400720A600A6802F400720192B7
:10184000019A0A6842F004020A60096801F0040182
:1018500001910199702102910321039102A900F0E5
:101860006BF812200121002201F078F8122001F01B
:1018700063F806B080BD000090F82110022923D142
:10188000026840F2040C1168C4F2020C21F00E014F
:10189000116013682F21C4F202018A4223F0010370
:1018A000136015DD3023C4F202039A421CD0442396
:1018B000C4F202039A421BD05823C4F202039A4294
:1018C0001CD14FF4803321E0042181630120704753
:1018D0000823C4F202039A420ED01C23C4F202036E
:1018E0009A420BD1102311E04FF480730EE000BF39
:1018F0004FF480530AE000BF012307E00CF16801B8
:101900004FF080738A4208BF4FF480130121CCF856
:10191000003080F82110416B0022002980F820203F
:1019200004BF0020704780B58847002080BD0000BC
:1019300090F82100704700002DE9F04F82B00E684A
:10194000002E00F0FD8041F20042C4F201020423A7
:1019500040F2004E904208BF03234FF6FF7CC4F2D2
:10196000010E009300240123C1F2100C4FF0000A75
:101970004FF000094BE000BF41F20002C4F2010247
:10198000009F904208BF022704F00C030F229A40E8
:101990002BEA020207FA03F34FEA9A051A4346F8C4
:1019A00025204E6840F20C45F202DEF8082054BFB4
:1019B00022EA080242EA0802C4F20105CEF8082031
:1019C0002A68B30254BF22EA080242EA08022A60E7
:1019D000B303DEF8042054BF22EA080242EA0802F8
:1019E000F303CEF80420DEF800204FF0010354BFCB
:1019F00022EA080242EA0802CEF800200E680AF144
:101A0000010A36FA0AF204F1040400F0998003FA9C
:101A10000AFB16EA0B08F1D04E68664512DC122E5E
:101A200056D8DFE806F0350B4D49555555555555F7
:101A30005555555555555545510000BFD1F80C9099
:101A400046E000BF4FF6FF72C1F2210296420FDC62
:101A50000022C1F2110296421AD00022C1F21202F3
:101A6000964215D00022C1F22102964210D02FE0FA
:101A70000022C1F2220296420AD00022C1F23102B3
:101A8000964205D00022C1F23202964220D100BF18
:101A90008A684AB1012A14BFC0F814B0C0F810B067
:101AA0004FF0080914E000BF4FF0040910E000BF38
:101AB000CA6802F104090BE04FF0000908E000BF1A
:101AC000CA6802F1080903E0CA6802F10C0900BF04
:101AD00002462646B8F5807F24BF0432203E1768B0
:101AE0000F25B54027EA050509FA06F635431560C6
:101AF000CA79D2067FF582AF41F21803C4F202031D
:101B00001A68AEF57E7642F001021A601A6802F099
:101B100001020192019A2AF0030256F802B040F63F
:101B20000002C4F20102904208D040F60042C4F222
:101B3000010290427FF420AF012725E7002723E729
:101B400002B0BDE8F08F0000002A08BF090401615F
:101B50007047000040F21420C2F200000068704795
:101B60007047000070470000F0B581B0044600687F
:101B700000254769426894F83E1002F48076FA0521
:101B800008D53EB16FF4807242610268012542F4CB
:101B900000420260BA0505D5002E1EBF02356FF463
:101BA000007242617A0516D5AEB1628D94F83D306F
:101BB000D4F830C0202908BF002A23D06FF48062F7
:101BC000402905F10405426101D0102903D10168C3
:101BD00041F400710160380506D52EB12068083542
:101BE0006FF40061416100E055B1206C40EA0501ED
:101BF0002046216401B0BDE8F04002F03BB900BFCF
:101C000001B0F0BD03F0F701212909D0282B08BF4E
:101C1000BCF1210F04D06FF4806141610435DAE733
:101C200094F83D10E26AB2F1080318BF0123203A8C
:101C300018BF0122134208BF282921D0212939D1F8
:101C40000021CFF6FF71E16221212163202184F878
:101C50003D10002184F83E10426822F4E0624260A8
:101C60006FF480624261026822F48062026042691D
:101C7000120648BF0161204600F0F4FDABE700BF4B
:101C80000021CFF6FF71E162416821F4E06141601B
:101C90006FF480614161016821F48061016000207E
:101CA0002021206384F83D1084F83E00204600F097
:101CB000E1FB90E76FF4806141618CE7F0B581B0A2
:101CC00007687968C26A90F83E5090F83DE0402D70
:101CD00001D0102D34D1BB697C69E60718D1B2F16F
:101CE0002A4F00F06B82B2F52A0F00F067822207BC
:101CF00001F4007240F10681002A00F00381416B7B
:101D0000426C0029D2B23A6140F0B080B0E000BF2E
:101D10008A0543D44FF0010C7A685B076ED4120534
:101D200000F14C8204F04402402A40F0598111F441
:101D3000806100F0558101B0BDE8F04002F0DCB9EF
:101D4000026C01F40073002A0CBFBC6900247D6999
:101D5000AA0729D543B3016C002918BFBC6990F8C4
:101D60003D1001F02801282940F0C0807968012247
:101D700021F48061796004F0040182EA9101220675
:101D80004FF0180258BF0C22825A002380F83C30D2
:101D900001B0BDE8F040FFF7E5BE00BFC16AB1F594
:101DA0002A0F3DD1012140E0EA066FD5002B6DD00E
:101DB00090F83D50796821F4E0617960002100914C
:101DC00079690091396841F00101396000993968F9
:101DD00021F4806139607968090540F17D8105F061
:101DE000F7010446222940F04D8154F8381F0A6853
:101DF000526824F80E2C34F80E2C4BE1120500F139
:101E0000DD8104F08402802A40F0FA8011F48061C0
:101E100000F0F68001B0BDE8F04002F04FBA00BF1C
:101E2000C16AB1F12A4F01D10821C16290F83E1078
:101E300040290BD1016D406C002900F0FE0018BF55
:101E400040F00100386101B0F0BD00BF0169B1F59B
:101E5000804F40F0898090F83D10426C212902F0BB
:101E6000FE0218BF01323A61416B09B1896A39B982
:101E7000806B002800F0A281806A002800F09E811B
:101E8000786840F40060786001B0F0BD0EF0F702B1
:101E9000212A79D105F08402802A40F0C58011F40E
:101EA000806100F0C18090F83D10428D002A00F062
:101EB0008581426A12F8013B3B614262428D013AE0
:101EC0004285428D002A08BF292940F07781796830
:101ED00021F48061796021210163282180F83D107F
:101EE00001B0BDE8F04000F0BDBC00BF0021009192
:101EF0007A690092BA690092009A80F83C1001B0A9
:101F0000F0BD00BF4FF0010CA6078CEA522C7FF504
:101F100003AF002A3FF400AF90F83E20C16A036B84
:101F200090F83D60222E40F0A380066D002E08BF81
:101F3000402A00F09D80026D002A40F04181026934
:101F4000B2F5404F40F03C81002100917969009149
:101F5000B96900910099396841F480713960016D67
:101F60000131016501B0F0BD016D002900F004816F
:101F7000016D012940F02281406C062101EAD01058
:101F8000F130386101B0F0BD05F04402402A5BD168
:101F900011F4806158D090F83D10428D002A00F075
:101FA0000D813A69436A1A70426A01324262428D77
:101FB000013A4285428D002A08BF2A2940F0FE805E
:101FC00001684A6822F480624A6022210163282164
:101FD00080F83D1001B0BDE8F04000F041BC00BF0A
:101FE00004F00401012282EA910141EA0C01C907CF
:101FF00040F0E48001B0BDE8F04002F001B800BF5D
:1020000004F00401012282EA910141EA0C01C907AE
:1020100040F0D480BEF1210F40F0C88001B0BDE88F
:10202000F04002F009B900BF690740F1C780002BFA
:1020300000F0C480418D002900F0C080416A11F891
:10204000012B3A610FE000BF690740F1B780002B18
:1020500000F0B480418D002900F0B0803969426AF7
:102060001170416A01314162418D01394185A5E01C
:102070000020009078690090B8690090009801B045
:10208000F0BD00BF54F8341F0A68526824F80A2CC7
:1020900034F80A2C1AB1026C42F0040202647A6825
:1020A000064622F4006208467A60FFF741FC0146CA
:1020B0003046012910D0206843F65551C0F6000182
:1020C0004163FFF7D9FB0146304629B12168044638
:1020D0004A6B084690472046418D61B101684A69C4
:1020E00052072FD44A69520639D4418D19B1016C77
:1020F00041F004010164016C21B101B0BDE8F04080
:1021000001F0B8BE2A2D08D100210163282180F8F2
:102110003D10044600F0A4FB204690F83D1028290D
:1021200032D10021CFF6FF71C1620021202201636C
:1021300080F83D2080F83E1001B0BDE8F04000F08E
:1021400099B900BF0969426A1170426A0168013297
:102150004262428D013A42854A695206C5D50969F3
:10216000426A1170416A01314162418D01394185F4
:10217000418D0029BBD1BEE7406C062101EAD01099
:10218000F030386101B0F0BD016B222918BF222D5B
:1021900014D100212022016380F83D2080F83E10F8
:1021A00001B0BDE8F04000F05BBB00BF402D05D1A1
:1021B00001B0BDE8F04002F0DBB800BF01B0F0BDF7
:1021C000428D52B1428D012A16D1202918BF08290B
:1021D00046D1396821F48061396000210091796924
:1021E0000091B96900910099396841F40071396032
:1021F0000021016501B0F0BD428D022A14D11029E1
:102200005AD8012214238A40C0F201031A4253D043
:102210003A6842F480623A60002200927A69009241
:10222000BA690092009A56E03A6842F480623A60D5
:102230007A68120534D54A1E1F2A08D8012303FAEA
:1022400002F248F28103C8F200031A4202D111F5EA
:10225000803F25D1796841F48051796020E000BF4A
:1022600011F5803F0AD1396821F4806139607968BD
:102270000905B2D5396821F4806110E0122B01D133
:102280000129A6D11029F5D8012202FA01F1142260
:10229000C0F201021142EDD0396841F48061396029
:1022A0000021009179690091B9690091009900219C
:1022B000016501B0F0BD00BF3A6842F400623A60C7
:1022C000002200927A690092BA690092009A3A68F4
:1022D00022F480623A607A68120512D54A1E1F2ADB
:1022E00008D8012303FA02F248F28103C8F200037E
:1022F0001A4202D111F5803F03D1796841F480512F
:1023000079600021016501B0F0BD00007047000058
:10231000002804BF01207047F0B581B0044690F852
:102320003D0028B9002084F83C00204600F052FA15
:10233000242084F83D002068016821F0010101603B
:10234000016841F400410160016821F4004101602D
:1023500000F01CFD636848F2A16CC0F2010C40F66D
:102360000011C0F23D0163453CBF48F28041C0F21C
:102370001E01884202D2012001B0F0BD4DF68361FA
:10238000C4F21B31A0FB01122168970CD1F804E0C4
:102390004FF496762EF03F0545EA92454D6077431F
:1023A00048F638160D6AC0F24106A7FB067625F0FE
:1023B0003F07634538BF960C721C3A430A62CA69EC
:1023C00048F2A0664CF6FF77C0F20106B34222EA5B
:1023D00007020BD801385B00B0FBF3F001306FF35C
:1023E0001F30042898BF04201BE000BFA7680138F5
:1023F00057B119277B43B0FBF3F001306FF31F3067
:1024000070B100F5804007E003EB4303B0FBF3F04D
:1024100001306FF31F3018B100F5004001E000BF3C
:1024200001201043C8610868D4E9072320F0C000E8
:10243000104318430860886848F2FF3204F10C0723
:1024400090438CCF18431043A6698860C86820F079
:10245000FF0038433043C860086840F0010008605E
:1024600000202021206484F83D10206384F83E0081
:1024700001B0F0BD704700007047000070470000D9
:1024800070470000704700002DE9F04F85B004460A
:102490000020994616460F460490FFF75BFB94F820
:1024A0003D10202927D10546206800BF8169890792
:1024B0001CD5FFF74FFB411B20681A29F6D3816911
:1024C0008907F3D500202021206384F83D1084F88B
:1024D0003E00206C04F13C0A40F020002064022001
:1024E00000218AF8001005B0BDE8F08FA2461AF866
:1024F0003C1F012904D1022005B0BDE8F08F00BFC8
:1025000001228AF800200368DDE90F180E9ADB0724
:1025100003D1036843F001030360036823F40063FD
:102520000360222084F83D00402084F83E00002013
:10253000206462626185608D394620850020CFF677
:10254000FF70E062204632464B46CDE9008501F03F
:102550006FFF18B1012005B0BDE8F08F208D022873
:1025600026D001280ED0002838D100200390206802
:1025700041690391816903910399016841F40071F4
:10258000016037E02068016821F480610160EFF3A9
:10259000108072B600200390206841690391816920
:1025A00003910399016841F40071016062B621E072
:1025B0002068016841F400610160EFF3108072B699
:1025C0000020039020684169039181690391039978
:1025D000016821F48061016062B60BE02068016847
:1025E00041F4806101600021039141690391806998
:1025F00003900398208D002800F0CC80042740F23F
:102600001C094BF2895BC0F20107C2F20009C1F25A
:10261000F84B23260EE000BF10690870606A218D18
:1026200001306062481E2085618D01396185010499
:1026300000F0B08080B203280CD802282CD00128EA
:102640004AD1204641462A4602F0CEF8002800F042
:102650009C807FE7204641462A4602F0C5F80028C4
:102660007FF478AF2068616A00690870606A226848
:10267000411C208D616201382085638D013B63859B
:1026800053695B07D3D580B20328C5D1106820F405
:1026900080601060C0E700BF2046394600224346F4
:1026A000009501F04FFF00287FF454AFEFF3108046
:1026B00072B62068616A026842F4007202600069C2
:1026C0000870606A218D01306062481E2085608D2F
:1026D0000138608562B658E02046394600224346FC
:1026E000009501F02FFF00287FF434AF20680168C7
:1026F00021F480610160EFF3108072B62068616A96
:1027000000690870606A218D01300139606221859D
:10271000618D01396185D9F80010C908A1FB0B1240
:10272000110A714304910499013904910499002913
:102730003CD021684A69520717D4049A013A04929E
:10274000049A9AB34A6952070FD4049A013A049240
:10275000049A5AB34A69520707D4049A013A049278
:10276000049A1AB34A695207DDD50A6842F4007226
:102770000A6009690170606A218D01306062481E3B
:102780002085608D0138608562B62068616A0069C5
:1027900043E700BF202084F83D00002084F83E007D
:1027A00000218AF8001005B0BDE8F08F002020213C
:1027B000206384F83D1084F83E00206C40F0200037
:1027C000206462B6012000218AF8001005B0BDE83F
:1027D000F08F000010B586B0016845F60000C4F225
:1027E000000081424FF00001CDE90411CDE9021152
:1027F00002D006B010BD00BF41F21804C4F20204BA
:10280000216800F5344041F008012160216801F0A1
:102810000801019101994FF4406102911221039145
:102820000321059102A9FFF787F86068002140F4B1
:10283000800060606068002200F4800001900198D0
:10284000212000F08BF8212000F076F822200021D2
:10285000002200F083F8222000F06EF806B010BDD0
:10286000704700007047000040F2140040F214214D
:10287000C2F20000C2F2000100780A681044086049
:102880007047000080B542F20000C4F20200016807
:1028900041F010010160032000F08CF80F2000F0DF
:1028A00005F800F027F8002080BD000070B540F268
:1028B0001406C2F2000640F21C013278C2F2000196
:1028C0004FF47A730968B3FBF2F20446B1FBF2F1FC
:1028D000084600F083FC0F2C4FF0010508D838B9EA
:1028E0004FF0FF3021460022002500F037F87460D9
:1028F000284670BD82B041F21800C4F2020001689F
:10290000022241F001010160016801F00101019121
:102910000199416841F080514160406800F0805069
:10292000009000980420C4F20100016862F31A616B
:10293000016002B070470000002848BF704700F0F7
:102940001F01012202FA01F11C2202EAD0004EF21C
:102950000012CEF2000281507047000010B54EF612
:102960000C5CCEF2000CDCF80030C3F3022E8EF0CB
:102970000704042C28BF0424BEF103034FF0FF3EDC
:102980000EFA04F438BF0023A14399400EFA03F372
:102990009A43114300F00F0200F160430901043A29
:1029A00003F564436244002848BF02F10C03197028
:1029B00010BD00004EF60C51CEF200010A684FF631
:1029C000FF031A4060F30A2242F0806040F0FD707D
:1029D00008607047012821D002280DD0102808D1A6
:1029E00041F20401C4F202010A6851F8040CC0016A
:1029F00034D40020704700BF80B500F0DBF941F20D
:102A00000401C4F2020109680222C1F3813102EB20
:102A10004101B0FBF1F0BDE88040704741F2040095
:102A2000C4F20200C16940F202320A40B2F5817F6D
:102A300004BF4FF40040704701F44071B1F5407F8E
:102A400018D0B1F5007F1CBF00207047006A49F61E
:102A50004041800701EAE070704700BFC2F3834045
:102A600015A3185CD2030DD440F60012C0F23D024B
:102A7000504313E050F8040C4FF22441800301EA64
:102A8000E07070470A6810A3C2F340429A5C41F2BA
:102A90000023C0F27A03B3FBF2F250430968490203
:102AA00048BF70474AF6AB214000CAF6AA21A0FBF6
:102AB00001014808704700BF020304050607080922
:102AC0000A0B0C0D0E0F1010010200002DE9F04151
:102AD00082B00446007841F21C06C007C4F2020628
:102AE0004AD030685FEAC00808D4306840F08050AF
:102AF0003060306800F080500190019847F2000784
:102B0000C4F200073868C00512D4386840F48070F9
:102B10003860FFF71FF805463868C00508D4FFF78E
:102B200019F8401B6428F7D9032002B0BDE8F081F2
:102B3000706810F4407012D0616801F440718842EE
:102B40000DD0706840F24042C4F24222012320F4CA
:102B5000407113600023C0071360716026D1706854
:102B6000616820F440700843B8F1000F706003D42E
:102B7000306820F0805030602068810707D556F813
:102B8000181CA26821F44041114346F8181CC006E5
:102B900007D556F8180CE16820F48000084346F881
:102BA000180C002002B0BDE8F08100BFFEF7D2FF94
:102BB000054641F2883700BF70688007CFD4FEF722
:102BC000C9FF401BB8424FF00300F5D9EAE7000007
:102BD000002804BF012070472DE9F04381B042F284
:102BE0000008C4F202080446D8F800000D4600F0C0
:102BF000070081420CD9D8F8000020F007002843D4
:102C0000C8F80000D8F8000000F00700A8426CD116
:102C1000206841F204098107C4F2020917D541076F
:102C200005D5D9F8001041F4E061C9F8001001079A
:102C300005D5D9F8001041F46051C9F80010D9F851
:102C40000010A26821F0F0011143C9F80010C0077C
:102C500042D1D8F8000000F0070085420CD2D8F825
:102C6000000020F007002843C8F80000D8F8000052
:102C700000F00700A84238D12068410707D5D9F8ED
:102C80000010E26821F4E0611143C9F80010000768
:102C900008D5D9F80000216920F4605040EAC1004D
:102CA000C9F80000D9F8002002F00C00082841F211
:102CB0000020C0F27A004DD147F63A63C2F3834157
:102CC000C0F60003595CD20338D440F60010C0F2BD
:102CD0003D0048433EE000BF606859F8041C0228EC
:102CE00008D0012826D1890306D4012001B0BDE80F
:102CF000F08300BF8901F8D5D9F8001021F0030155
:102D00000843C9F80000FEF725FF064641F2883760
:102D1000D9F80000616800F00C00B0EB810F98D08A
:102D2000FEF718FF801BB842F2D9032001B0BDE8BE
:102D3000F08300BF8907D8D5DEE700BFD9F80020AF
:102D400047F64803C2F34042C0F600039A5C48438A
:102D5000B0FBF2F0D9F8001047F23072C1F3031162
:102D6000C0F60002515C40F21C0220FA01F140F270
:102D70001800C2F200000068C2F200021160FFF702
:102D800095FD002001B0BDE8F083000040F21C007A
:102D900041F20401C2F20000C4F2020100680968B5
:102DA00047F24072C1F30221C0F60002515CC840F4
:102DB0007047000040F21C0041F20401C2F2000022
:102DC000C4F202010068096847F24072C1F3C221EF
:102DD000C0F60002515CC84070470000002804BFE4
:102DE000012070472DE9F04182B00446007841F29D
:102DF0000006C007C4F202060CD0706800F00C0098
:102E0000042840F081803068800303D56068002882
:102E100000F04681207880071BD5706810F00C0FF9
:102E200009D0706800F00C00082840F087807068B6
:102E3000C00300F183803068800703D52069012832
:102E400040F02E813068616920F0F80040EAC1004E
:102E500030602078000713D4207840072CD4E5692F
:102E6000002D00F01881706800F00C00082840F078
:102E7000A780012D40F00481012002B0BDE8F0815F
:102E8000A069002800F084800020C4F242200121C3
:102E9000C0F88014FEF75EFE054600BF706A80072A
:102EA00000F1B280FEF756FE401B0228F6D903203F
:102EB00002B0BDE8F08100BFF0695FEAC00808D445
:102EC000F06940F08050F061F06900F080500090AF
:102ED000009847F20007C4F200073868C00549D4DB
:102EE000386840F480703860FEF734FE054600BF55
:102EF0003868C0053ED4FEF72DFE401B6428F7D984
:102F0000032002B0BDE8F081706800F00C000828D2
:102F100003D17068C0033FF576AF6168306800295F
:102F200000F00C81B1F5A02F00F00081B1F5803FD9
:102F300040F01A8140F480301CE100BF2069002875
:102F400040F20000C4F2422000F0888001210160BC
:102F5000FEF700FE054600BF306880073FF572AF00
:102F6000FEF7F8FD401B0228F6D9032002B0BDE8A9
:102F7000F08100BFE168306A002900F09D800529DA
:102F800000F09280012940F0AF8040F00100B1E0F4
:102F90000020C4F242200021C0F88014FEF7DAFDC0
:102FA000054600BF706A80077FF556AFFEF7D2FD79
:102FB000401B0228F6D9032002B0BDE8F08100BF13
:102FC0000027C4F2422700203866FEF7C3FD022D19
:102FD00005460DD13068800140F1DE80FEF7BAFD74
:102FE000401B02284FF00300F4D902B0BDE8F08185
:102FF000306880014FD5FEF7ADFD401B02284FF031
:103000000300F5D9F1E700BF40F21C00C2F2000056
:10301000006844F6D351C1F26201A0FB0101480AE5
:10302000019000BF00BF0198411E002801913FF4AC
:1030300013AF00BF0198411E002801913FF40CAF6F
:1030400000BF0198411E002801913FF405AF00BF69
:103050000198411E00280191E4D1FDE600210160A4
:10306000FEF778FD054600BF306880077FF5F1AEBA
:10307000FEF770FD401B02284FF00300F4D9B4E7BF
:103080007068216A00F480328A4209D1616A00F4D2
:103090007010884204D1002002B0BDE8F08100BF6A
:1030A000012002B0BDE8F08140F004003062306AD7
:1030B00040F001001EE000BF20F001003062306AE5
:1030C00020F004003062FEF745FD054641F28837E6
:1030D000306A800720D5FEF73DFD401BB8424FF017
:1030E0000300F5D981E700BF20F001003062306AAB
:1030F00020F004003062FEF72DFD054641F28837CE
:10310000306A800708D4FEF725FD401BB842F7D986
:10311000032002B0BDE8F081B8F1000F3FF59FAE8B
:10312000F06920F08050F06199E600BF40F4802003
:103130003060306840F480301CE000BF20F4803004
:103140003060306820F480203060FEF703FD0546D3
:10315000306880037FF55EAEFEF7FCFC401B642800
:103160004FF00300F4D940E720F48030306030683D
:1031700020F480203060FEF7EDFC054630688003C7
:103180003FF548AEFEF7E6FC401B6428F6D9032065
:1031900002B0BDE8F08100BF206AB0F5803F05D1E4
:1031A0007168A26821F40031114371607168626A2C
:1031B00021F4741111430843706001203866FEF752
:1031C000C9FC0446306880013FF565AFFEF7C2FCDC
:1031D000001B02284FF00300F4D906E7411E00202F
:1031E000B0EB116F1CBF012070474EF21002CEF2FF
:1031F000000251604EF62351CEF20001F0230B7015
:10320000072190601160704790F83C20012A04BFAC
:1032100002207047B0B501F108053CCDD1E900CEE0
:1032200023F47C5322F470521A432EF4F0431A43D1
:103230002CF4E0431A4324F4C0431A432A43C969D7
:1032400022F48042036811435964002180F83C1045
:103250000020B0BD90F83C20012A4FF0020236D089
:1032600010B580F83D200268D2F804E0D2F808C01A
:103270000C682EF07003234340F2FF74C4F2000484
:10328000A24253600ADCB2F1804F13D040F20043F7
:10329000C4F200039A420DD011E000BF42F6004391
:1032A000C4F201039A4205D040F60003C4F20003C1
:1032B0009A4204D149682CF080031943916001219E
:1032C000002280F83D1080F83C20BDE810401046F8
:1032D00070470000C1B1042908D0082914BF452255
:1032E0004422825C012A05D016E000BF4322825CA2
:1032F000012A11D10222082910D0042914BF80F814
:10330000452080F843200BE090F84220012A03D1A9
:10331000022280F8422003E00120704780F8442018
:10332000006801F00F010422036A02FA01F123EAA6
:1033300001020262026A11430162416C40F2FF72B3
:10334000C4F2000241F40041904241640ADCB0F151
:10335000804F13D040F20041C4F2000188420DD0EA
:1033600013E000BF42F60041C4F20101884205D0DB
:1033700040F60001C4F20001884206D1816801F0E4
:103380000701062904BF00207047016841F00101D0
:103390000160002070470000002804BF0120704732
:1033A00010B590F83D1031B9002180F83C1004466A
:1033B00000F070F82046022180F83D10016840F2CC
:1033C000FF740B68C4F2000442F6004CA142C4F240
:1033D000010C15DCB1F1804F1AD040F20042C4F26A
:1033E0000002914214D0A14218DCB1F1804F1DD0EF
:1033F00040F20042C4F20002914217D01AE000BF2E
:10340000614505D040F60002C4F200029142EAD1C3
:10341000826823F070031343A142E6DD614505D0C5
:1034200040F60002C4F20002914203D1026923F483
:1034300040731343846923F08002D0F804E0C3682A
:10344000224361450A60CB62C1F828E002D142699B
:10345000CCF8302001224A610B69DB0703D00B69ED
:1034600023F001030B6180F8462080F83E2080F8AD
:103470003F2080F8402080F8412080F8422080F8EA
:10348000432080F8442080F8452080F83D2000202B
:1034900010BD0000006842F60041C4F201018842FC
:1034A00018BF704781B041F21800C4F202000168F1
:1034B00041F400610160006800F400600090009831
:1034C00001B0704790F83C20012A4FF002026CD006
:1034D00080B580F83D20D0F800C04FF67772DCF858
:1034E000083023EA0202CCF808200B684F2B29DCB5
:1034F0001F2B45DD202B46D0302B44D0402B40F0F5
:10350000AF80D1F804E0C968DCF82030DCF8202076
:1035100022F00102CCF82020DCF8182022F0F00282
:1035200042EA011123F00A0242EA0E02CCF8181016
:10353000CCF82020DCF8081041F0470121F03001E0
:1035400028E000BF6F2B33DDB3F5005F74D0B3F517
:10355000805F21D0702B40F08380D1E901E3C968FE
:10356000DCF8082043EA0E0322F47F4243EA0121FB
:103570001143CCF80810DCF8081041F0770109E09D
:103580000BB1102B6CD1DCF8081021F0700119433D
:1035900041F00701CCF808100022012180F83D100D
:1035A000002180F83C10BDE880401046704700BF05
:1035B000502B21D0602B53D1D1F804E0C968DCF83E
:1035C0002030DCF8202022F01002CCF82020DCF89B
:1035D000182022F4704242EA013123F0A00242EAAC
:1035E0000E12CCF81810CCF82020DCF8081041F0AE
:1035F000670121F01001CDE7D1F804E0C968DCF8DB
:103600002030DCF8202022F00102CCF82020DCF869
:10361000182022F0F00242EA011123F00A0242EAE5
:103620000E02CCF81810CCF82020DCF8081041F07D
:10363000570121F02001ADE7D1E901E3C968DCF8C9
:10364000082043EA0E0322F47F4243EA012111439A
:10365000CCF80810DCF8081041F480419AE700BF6C
:1036600001229AE790F83C30012B04BF02207047FA
:103670004FEAB202032A00F2F1802DE9F043DFE8BD
:1036800002F003A53B7500BF036842F600461D6AC1
:103690001A6AC4F2010622F001021A621A465C6834
:1036A00052F818CFB3428E68D1F800E025F0020539
:1036B00045EA06050CD1CE68D1E9057824F44074BA
:1036C00025F00C0526F004063C43354344EA080483
:1036D0002CF0730747EA0E075C609F614F68096929
:1036E0005F631D629F6947F008079F619F6927F02C
:1036F00004079F61A6E000BF036842F600461D6A0A
:103700001A6AC4F2010622F480721A621A46D3F8C9
:1037100004C052F81CEFB3428E680C6825F40075A3
:1037200045EA06250FD1CE68D1E90598360240F268
:10373000FF4725F44065BE4335432CF4405748EA23
:10374000090647EA061C2EF073072743C3F804C096
:10375000DF614F680969DF631D62DF6947F00807B1
:10376000DF61DF6927F00407DF616BE0036842F681
:103770000047D3F820C01A6AC4F2010722F480522D
:103780001A621A465C6852F81C5FD1F800E08E6835
:10379000BB4204D14F6924F4804444EA87142CF4DA
:1037A000005747EA063725F4E64646EA0E265C60EF
:1037B000DE614E6809691E641F62DF6947F40067B5
:1037C000DF61DF6927F48067DF613AE0036842F672
:1037D00000461D6A1A6AC4F2010622F010021A623B
:1037E0001A46D3F804C052F8184FB3428E68D1F885
:1037F00000E025F0200545EA06150FD1CE68D1E995
:1038000005986FF0400725F0C00507EA0616354316
:103810002CF4406748EA090647EA860C24F4E6449B
:1038200044EA0E27C3F804C09F614F6809699F638B
:103830001D629F6947F400679F619F6927F4806755
:103840009F6109021368194311600021BDE8F0432C
:10385000002280F83C200846704700BF012100226A
:1038600080F83C2008467047002804BF01207047BC
:1038700010B590F83D1031B9002180F83C10044695
:1038800000F070F82046022180F83D10016840F2F7
:10389000FF740B68C4F2000442F6004CA142C4F26B
:1038A000010C15DCB1F1804F1AD040F20042C4F295
:1038B0000002914214D0A14218DCB1F1804F1DD01A
:1038C00040F20042C4F20002914217D01AE000BF59
:1038D000614505D040F60002C4F200029142EAD1EF
:1038E000826823F070031343A142E6DD614505D0F1
:1038F00040F60002C4F20002914203D1026923F4AF
:1039000040731343846923F08002D0F804E0C36855
:10391000224361450A60CB62C1F828E002D14269C6
:10392000CCF8302001224A610B69DB0703D00B6918
:1039300023F001030B6180F8462080F83E2080F8D8
:103940003F2080F8402080F8412080F8422080F815
:10395000432080F8442080F8452080F83D20002056
:1039600010BD000070470000C1B1042908D008292B
:1039700014BF41224022825C012A05D016E000BF1C
:103980003F22825C012A11D10222082910D0042989
:1039900014BF80F8412080F83F200BE090F83E20D3
:1039A000012A03D1022280F83E2003E00120704763
:1039B00080F84020006801F01F010122036A8A405C
:1039C00023EA02010162036A42F64441C4F20101A2
:1039D0001A43A1F14403984202620FD040F2FF71F2
:1039E000C4F20001884213DCB0F1804F1CD040F2D9
:1039F0000041C4F20001884216D01CE00A6842F47B
:103A000000420A6040F2FF71C4F200018842EBDD1F
:103A100042F60041C4F20101884205D040F600019F
:103A2000C4F20001884206D1816801F0070106292D
:103A300004BF00207047016841F0010101600020CF
:103A400070470000002804BF0120704710B50446ED
:103A500090F8410028B9002084F84000204600F08A
:103A600063F8242084F841002068D4E90212C36876
:103A700023F40053C360036923F440531A430261E3
:103A8000D4E904231143C268194341F20C639A43F9
:103A90001143C1604169A26921F44071114343F6A9
:103AA0000002C4F201029042416103D0FFF76EF9B7
:103AB00002E000BFFFF77EF9D4E900231921484353
:103AC0009900B0FBF1F048F21F5CC5F2EB1CA0FBC3
:103AD0000C314FF69C734909C0F6FF7301FB0300DC
:103AE000322303EB0010A0FB0C03F02000EA53107C
:103AF00000EB0110C3F343110844906010692021CA
:103B000020F490401061506920F02A005061D06884
:103B100040F40050D0600020606484F8411084F8C4
:103B20004210606310BD000070B586B040F600041E
:103B3000C4F201040068A4F54441002688420596B9
:103B4000CDE90366029601D006B070BD41F21800BF
:103B5000C4F20200416802AD41F4003141604168A5
:103B600001F4003101910199016841F00401016003
:103B70000068294600F0040001900198042002909A
:103B800002200390032005902046FDF7D5FE082073
:103B9000CDE90206204629460496FDF7CDFE06B083
:103BA00070BD00002DE9F04381B0044690F841005B
:103BB000202809D100294FF0010018BF002A07D1A1
:103BC00001B0BDE8F08300BF022001B0BDE8F08382
:103BD0000020606421201D460E4684F841001746EF
:103BE000FDF7B8FFA784E784A1688146B1F5805F3F
:103BF00002D1206900285DD037460020E28C216880
:103C0000002A5DD06A1C24D0002D4AD0804600BF17
:103C10000868000608D4FDF79DFFA0EB0900A84244
:103C20007AD82168C868F3E717B117F8010B04E0E8
:103C300038F8020B00276FF35F204860E08C0138F2
:103C4000E084E08C0028E3D13AE000BF0A68120665
:103C500009D40A68120606D40A6812065CBF0A680C
:103C60005FEA0262F2D51FB117F8012B05E000BF31
:103C700030F8022B00276FF35F224A60E28C013A92
:103C8000E284E28C002AE4D11AE000BF30F8022B73
:103C900000276FF35F224A60E28C013AE284E28CF3
:103CA00072B10A68120635D5002FEFD017F8012B34
:103CB000F1E700BF00273046E28C2168002AA1D13D
:103CC000086840061ED42DB3681C14D1086840064D
:103CD0002AD40868400627D40868400624D4086817
:103CE00040064FF00000F1D50DE000BF2068C1682C
:103CF0000068400618D4FDF72DFFA0EB0900A8428C
:103D0000F4D909E00020202184F8411001B0BDE879
:103D1000F08300BFFDF71EFF0320202184F841102F
:103D200001B0BDE8F08300BF0020202184F84110DD
:103D300001B0BDE8F0830000FEE7000040F26C0037
:103D4000C2F20000FDF710BF40F26C00C2F20000AA
:103D5000FDF7B4BF10B581B000210091406A40F278
:103D60001C01C2F2000190F83DC009684BF2895273
:103D7000C908C1F2F842A1FB0212110A23225143E1
:103D80000091009901B3009901390091026811680E
:103D900089051DD50099B9B10099013900911168C3
:103DA000890515D5009979B10099013900911168FB
:103DB00089050DD5009939B1009901390091116833
:103DC0008905DED404E000BF016C41F020010164EC
:103DD000446B4FF0000E002C1CBF0021A162816BD0
:103DE00000291CBF00228A620268002C136823F499
:103DF00080631360A0F82AE018BFC4F834E00029FB
:103E00001CBF00234B63116821F00101116090F881
:103E10003D1060290CD1202180F83D10002180F850
:103E20003E10016401B0BDE81040FDF799BE00BF2F
:103E30000CF02801282911D1116841F0010111600D
:103E4000116841F48061116000210163282180F82C
:103E50003D1001B0BDE81040FEF758BA202180F8AF
:103E60003D10002180F83E1001B0BDE81040FEF783
:103E70004DBA000010B5044690F83D1090F83E0091
:103E8000B0F1100218BF0122403818BF01200242D1
:103E900008BF222934D001F0280028283AD1002078
:103EA0002063282084F83D0020684168090542D538
:103EB000416821F400614160606B90F82110012994
:103EC00058D1A06B43F65551C0F600014163FDF790
:103ED000D3FC002861D020684169490606D50069F5
:103EE000616A0870616A206801316162016821F0CD
:103EF00001010160202084F83D00A06B4BE000BF71
:103F00002068026822F4006202604268120505D54A
:103F10000CE000BF20684268120507D4602905D074
:103F2000202184F83D10002184F83E1000212163F7
:103F300041680905BCD494F83D10602950D1202176
:103F400084F83D10002121644169490606D50069C5
:103F5000616A0870616A206801316162016821F05C
:103F6000010101602046FDF7FBFD206C000717D121
:103F70001BE000BF43F65551C0F600014163FDF759
:103F80007BFC50B12168606B0A6822F001020A6074
:103F9000202184F83D10416B8847206C000704D035
:103FA0002068416821F4E061416094F83D00216C93
:103FB000490758BF10BD282810D10020CFF6FF7048
:103FC000E06200212020216384F83D00204684F82F
:103FD0003E10BDE81040FEF74DBA00BF10BD00BF57
:103FE0004169490605D50069616A0870606A013057
:103FF00060622046FEF78AF9206C0007D0D1D4E732
:10400000C16A428D042A07D10168426A4B6823F4D1
:1040100080634B60096911E0428D032A16D1026862
:104020000229536823F48063536005D0042903D028
:10403000116821F4806111601169426A1170416A4E
:1040400001314162418D013941857047428D022A1B
:1040500012D14A1E0F2A19D8DFE802F008121812EE
:10406000181818181818181818181808026813685B
:1040700023F480630EE000BF0168426ACAE700BF14
:104080000268136843F4806304E000BF02681368A9
:1040900043F4007313601269436A1A70426AD0F8DD
:1040A00000C0531C4362438D013B4385DCF8103054
:1040B0005370426A036801324262428D013A42857E
:1040C0005A6822F440725A60202280F83D2090F80D
:1040D0003E300022402B80F83E2003D10263FEF7E1
:1040E000CFB900BFB1F1080218BF1222203918BFA2
:1040F00011460163FEF7C0B981B090F83D10222946
:1041000010D1C16A428D042A0ED30168426A09693E
:104110001170416A01314162418D01394185418D02
:10412000032959D001B07047C36A012A54D8022B21
:1041300052D00022009240F21C02C2F20002126829
:104140004BF28953D208C1F2F843A2FB03231A0AA7
:1041500002EB82020092009A013A0092009A002A31
:1041600042D0026813689B0517D5009B013B009362
:10417000009BCBB313689B050FD5009B013B0093BD
:10418000009B8BB313689B0507D5009B013B0093F5
:10419000009B4BB313689B05DDD4136823F4806345
:1041A0001360536823F4E06353601269436A1A7022
:1041B000426A01324262428D013A4285202280F8F1
:1041C0003D2090F83E300022402B80F83E2027D141
:1041D000026301B0FEF754B90068416821F48061C0
:1041E000416001B0704700BF016C41F020010164E3
:1041F0000168426A4B6823F4E0634B6009691170FF
:10420000416A01314162418D01394185202180F8A7
:104210003D10002180F83E1001B0FEF777B800BFD6
:10422000B1F1080218BF1222203918BF11460163EC
:1042300001B0FEF721B90000C16A90F83D20212AA3
:1042400018BF7047428D4AB1416A026811F8013BBC
:1042500013614162418D01394185704711F5803FFD
:1042600018BF082918D101684A6822F4E0624A6040
:104270000A6842F400720A6000212022016380F87B
:104280003D2090F83E2080F83E10402A08BFFEF7FF
:10429000F9B8FEF7F3B800BF2029E4D001684A68F6
:1042A00022F4E0624A6011210163002180F83E108F
:1042B000202180F83D10FEF7E1B8000090F83D1095
:1042C00090F83EC0C26A038D002B08BF212919D087
:1042D000212905D0BCF1400F08BF222900D070472A
:1042E000418D69B390F83E10402908BF00F040B8F6
:1042F000416A026811F8013B13614162418D013945
:104300004185704712F5803F18BF082A1ED1016809
:104310004A6822F4E0624A600A6842F400720A6065
:1043200000212022016380F83D2090F83E2080F893
:104330003E10402A08BFFEF7A5B8FEF79FB800BFA1
:104340000068416821F4806141607047202ADED016
:1043500001684A6822F4E0624A6011210163002189
:1043600080F83E10202180F83D10FEF787B800004D
:1043700090F83D10026D5AB1026D012A14D1016806
:10438000826CD2B20A61016D01310165704700BFD4
:10439000C26C816C012A15D10268C9B21161016D2C
:1043A00002310165704700BF026D022A12D1222935
:1043B00018D101680A6842F480720A60016D013107
:1043C000016570470268C1F307211161016D013178
:1043D0000165704700684169090644BF0021016119
:1043E000704700BF428D5AB1212909D1416A026844
:1043F00011F8013B13614162418D013941857047DC
:10440000428D002A08BF2129EAD101684A6822F4B6
:10441000E0624A600A6842F400720A6000212022C9
:10442000016380F83D2080F83E10FEF72BB80000B5
:104430002DE9F04782B0044600689A460B9D0A9E1B
:104440000368914643F48062026002680F4642F4BA
:104450008071016020464FF0011100223346009523
:1044600000F070F850B120680068C00544BF4FF4F8
:1044700000702064032002B0BDE8F08740F202081B
:104480002068C0F2010807F0FE0707612046414698
:1044900032462B4600F03CF920B1012002B0BDE8C5
:1044A000F08700BF0020019020682A4641690191F1
:1044B0008069314601900198204600F0DDF9B0B9DD
:1044C0002068BAF1010F09D04FEA19210161204695
:1044D00031462A4600F0D0F948B920685FFA89F1E0
:1044E0000161204631462A4600F0C6F960B1206CD1
:1044F0000428D2D12068016841F4007101600120D4
:1045000002B0BDE8F08700BF206800220168334692
:1045100041F48071016020464FF00111009500F0D8
:1045200011F800289FD147F0010C2768204641462A
:1045300032462B46C7F810C002B0BDE8F04700F085
:10454000E7B800002DE9F041054600681E46144614
:1045500001F47F0201338FB242D0DDF81880B2F54A
:10456000803F40F0878040693840C01BB0FA80F03F
:104570004009844240F0C8804EB924E04069384088
:10458000C01BB0FA80F04009844240F0BD80FDF7C6
:10459000E1FAA0EB08012868B142EFD9416939403E
:1045A000C91BB1FA81F149098C42E7D19BE000BFF8
:1045B00040693840C01BB0FA80F0400984424FF097
:1045C000000040F0A280FDF7C5FA28684169394033
:1045D000C91BB1FA81F149098C42E9D183E000BFDE
:1045E000B2F5803F24D100BF41693940C91BB1FAFF
:1045F00081F149098C4240F0878041693940C91BEB
:10460000B1FA81F149098C4240F07E80416939401C
:10461000C91BB1FA81F149098C4275D14169394010
:10462000C91BB1FA81F149098C42DDD06CE000BFB1
:1046300081693940C91BB1FA81F149098C4263D1C2
:1046400081693940C91BB1FA81F149098C425BD1BA
:1046500081693940C91BB1FA81F149098C4253D1B2
:1046600081693940C91BB1FA81F149098C42DFD017
:104670004AE000BF80693840C01BB0FA80F04009B2
:10468000844241D146B923E080693840C01BB0FA6A
:1046900080F04009844237D1FDF75CFAA0EB0801B5
:1046A0002868B142F0D981693940C91BB1FA81F15A
:1046B00049098C42E8D116E080693840C01BB0FA45
:1046C00080F0400984424FF0000018BFBDE8F0813F
:1046D000FDF740FA286881693940C91BB1FA81F1B8
:1046E00049098C42E8D100202021286385F83D103B
:1046F00085F83E00296C41F02001296485F83C00D2
:104700000120BDE8F08100BF0020BDE8F08100007D
:10471000F0B581B0044600681D4643698FB203EAD4
:104720000701B94202D1002001B0F0BD416916462F
:1047300001323CD0490512D47EB300BFFDF70AFA1E
:10474000411B2068B14203D941693940B9422BD19C
:1047500041693940B942E6D041694905EED5016861
:1047600041F4007101606FF4806141610420002117
:104770002022216384F83D2084F83E10226C1043EF
:10478000206484F83C10012001B0F0BD416939403B
:10479000B942C8D041694905E1D4FDF7DBF9206889
:1047A00041693940B942F1D02020E0E7416949052B
:1047B000D5D441693940B942B5D041694905CED413
:1047C00041693940B942AED041694905C7D4416910
:1047D0003940B942A7D041694905C0D4416939403F
:1047E000B942E3D19FE7000070B504460068154662
:1047F00050F8143F5A063DD40E4629B926E000BFB2
:1048000050F8141F490635D40168C90621D4FDF7B4
:10481000A1F9411B2068B142F2D941694906EFD4A0
:1048200000202021206384F83D1084F83E00206C95
:1048300040F0200018E000BFFDF78CF9206850F828
:10484000141F4906ECD50168490613D40168C9064E
:10485000F2D56FF01001016000202021206384F860
:104860003D1084F83E00206C2064002084F83C0059
:10487000012070BD002070BD70B50368044653F878
:10488000140F000611D40E46481C29D086BB00BF69
:104890001868400527D4FDF75DF9236853F8140F15
:1048A000000637D518680006F2D5002070BD00BF9D
:1048B00018680006F9D41868400514D41868000672
:1048C000F3D4186840050ED418680006EDD41868B3
:1048D000400508D4186800064FF0000048BF70BDBE
:1048E00018684005E4D56FF480601860042012E079
:1048F000154603E053F8140F0006D6D41868400597
:10490000F1D4FDF727F9401B2368B042F2D958696A
:104910000006EFD4202000212022216384F83D20CE
:1049200084F83E10226C10432064012084F83C106F
:1049300070BD000010B504460C2001F0E9FA2146D4
:10494000BDE8104000F0A0BD00F0AABD70B588B071
:1049500040F22805C2F2000542F20041C4F2010112
:104960002846002440F8101F4FF4807101264FF4B0
:104970006022069406730475C261C0E901410661B4
:10498000FCF790FE002818BFFCF7BAFA0420CDE926
:1049900001060320059003944FF48050ADF81840B1
:1049A000049405F11004079001A92046FCF73CFB94
:1049B000002818BFFCF7A4FA0520019002200290FD
:1049C00001A92046FCF730FB002818BFFCF798FA35
:1049D000062001900320029001A92046FCF724FB49
:1049E000002818BFFCF78CFA08B070BD2DE9F04321
:1049F00085B04FF0000941F21800CDE90399CDE9E7
:104A00000199C4F20200016840F6000441F010016F
:104A100001600168C4F2010401F0100100910099E5
:104A20000168002241F0200101600168012601F0C7
:104A3000200100910099016841F0040101600168C2
:104A400001F0040100910099016841F00801016042
:104A50000068012100F00800009000982046FDF752
:104A600073F804F5806528464FF4407100224FF436
:104A70004078FDF769F8CDE9016601AE02272046CE
:104A80003146CDF80C900497FCF756FF1120CDE984
:104A9000020928463146CDF804800497FCF74CFF04
:104AA00005B0BDE8F083000080B540F26C0045F62B
:104AB0000001C2F20000C4F2000148F2A06200232B
:104AC0004FF4804CC0F2010280E80E00C0E9033CC4
:104AD000C0E90533C0E90733FDF71AFC002808BF19
:104AE00080BDBDE88040FCF70BBA000070B59CB0FB
:104AF00042F6004540F2C000C4F201050021C2F2B6
:104B00000000202240F29F5380261691CDE9141117
:104B10001191CDE90F11CDE90D11CDE90B11CDE9C1
:104B20000911CDE90711CDE90511CDE90311CDE951
:104B30000111C0E90051C0E90223C0E904118661F6
:104B4000FEF72AFC002818BFFCF7DAF94FF4805072
:104B5000139040F2C000C2F2000013A9FEF7B2FCAD
:104B6000002818BFFCF7CCF940F2C000C2F20000E8
:104B7000FEF77AFE002818BFFCF7C2F970201090EB
:104B800040F2C0000024C2F2000010A91194FEF708
:104B900061FB002818BFFCF7B3F9602009904FF4BF
:104BA0003470CDE90A0440F2C000C2F2000009A945
:104BB0000022CDE90C44CDE90E44FEF753FD002858
:104BC00018BFFCF79DF940F2C000C2F2000009A92D
:104BD0000422FEF747FD002818BFFCF791F940F2C8
:104BE000C000C2F2000009A90822FEF73BFD002820
:104BF00018BFFCF785F97020099040F2C000C2F29E
:104C0000000009A90C22FEF72DFD002818BFFCF7B3
:104C100077F94FF4006001904FF4806002904FF4F8
:104C200080700390962004904FF4005040F2C0042E
:104C300006904FF48040C2F200040026089001A9BB
:104C400020460596FEF7E0FA002818BFFCF758F951
:104C50002068CDE91A66A8421996189602D01CB0B1
:104C600070BD00BF41F21800C4F20200016818AC28
:104C700041F0040101600168022601F0040117916E
:104C80001799016841F0080101600068214600F0B1
:104C90000800179017984FF4F0601890A5F5105081
:104CA00019961B96FCF748FE0320CDE91806A5F5DA
:104CB000005021461B96FCF73FFE0420C4F2010081
:104CC000016841F0E06141F0400121F080010160A4
:104CD0001CB070BD80B540F2081044F20041C2F231
:104CE0000000C4F2000100234FF00C0C4FF4E1323D
:104CF00080E80E00C0E90333C0E905C3C361FEF7D5
:104D0000A1FE002808BF80BDBDE88040FCF7F8B8D0
:104D1000FEE700002DE9F04381B0044660300D4607
:104D2000FCF742F825604CF29B600025C3F6A270A8
:104D300040F200090021C4F27A454FF00008E06516
:104D4000C4F28229C4F220114FF07C5000222B467D
:104D5000C4F81480C4F83080C4F82880CDF80090DE
:104D600000F038FB44F2AE764CF6CD47C3F66166F0
:104D7000C3F6CC47A0633046394600222B46CDF817
:104D8000009000F027FBE0633046394600222B46B6
:104D9000CDF8009000F01EFB20644DF20A70C3F6BF
:104DA000A330FFF7C7FD606441F26F20C3F6832094
:104DB000FFF7C0FDA06441F26F20C3F60320FFF7A8
:104DC000B9FDE064C4F82C8084F8B88001B0BDE877
:104DD000F0830000FEE7000070B540F600440025B7
:104DE000C4F2010445F0B000C0B200F075FA102022
:104DF00000F072FA0020002600F06EFA20464FF410
:104E000000710122FCF7A0FE20464FF480710122C0
:104E1000FCF79AFE20464FF400710022FCF794FE46
:104E200020464FF480710022FCF78EFE782000F0BF
:104E300023F8402000F020F8002000F01DF8204664
:104E40004FF400710022FCF77FFE20464FF4807182
:104E50000122FCF779FE20464FF400710122FCF795
:104E600073FE701C46B2B6F1FF3FC7DCE8B20135F5
:104E7000072828BF70BDB5E7B0B540F60044C4F2BE
:104E800001040546C20920464FF40071FCF75CFEA0
:104E900020464FF480710122FCF756FE20464FF465
:104EA00080710022FCF750FEC5F3801220464FF4BB
:104EB0000071FCF749FE20464FF480710122FCF797
:104EC00043FE20464FF480710022FCF73DFEC5F3FF
:104ED000401220464FF40071FCF736FE20464FF496
:104EE00080710122FCF730FE20464FF480710022D1
:104EF000FCF72AFEC5F3001220464FF40071FCF7C0
:104F000023FE20464FF480710122FCF71DFE20464F
:104F10004FF480710022FCF717FEC5F3C002204653
:104F20004FF40071FCF710FE20464FF4807101220F
:104F3000FCF70AFE20464FF480710022FCF704FEC5
:104F4000C5F3800220464FF40071FCF7FDFD2046BA
:104F50004FF480710122FCF7F7FD20464FF4807179
:104F60000022FCF7F1FDC5F3400220464FF400712A
:104F7000FCF7EAFD20464FF480710122FCF7E4FDC6
:104F800020464FF480710022FCF7DEFD05F001029F
:104F900020464FF40071FCF7D7FD20464FF4807196
:104FA0000122FCF7D1FD20464FF480710022FCF76E
:104FB000CBFD20464FF480710122FCF7C5FD204651
:104FC0004FF480710022BDE8B040FCF7BDBD000089
:104FD00010B5FFF70BFD40F60044C4F20104204673
:104FE0004FF480710122FCF7AFFD20464FF40071B1
:104FF0000122FCF7A9FDAE2000F06EF9D52000F0EB
:105000006BF9802000F068F9A82000F065F93F20D6
:1050100000F062F9D32000F05FF9002000F05CF9A5
:10502000402000F059F9A12000F056F9C82000F006
:1050300053F9DA2000F050F9122000F04DF98120E8
:1050400000F04AF9CF2000F047F9D92000F044F9E8
:10505000F12000F041F9DB2000F03EF9302000F0B3
:105060003BF9A42000F038F9A62000F035F98D2096
:1050700000F032F9142000F02FF9AF2000F02CF9E5
:10508000BDE81040FFF7A8BE2DE9F04780467E201E
:1050900000EB480017466FF0070240F0B00002EB4B
:1050A000C104C0B2E5B200F017F9280900F11009F7
:1050B000484600F011F904F0080A504600F00CF9D7
:1050C00047F64A00C0F6000000EB07114FF60060FB
:1050D000CFF6FF70085CA1F5007600F039F9707822
:1050E000B778F478357900F033F9384600F030F9C4
:1050F000204600F02DF9284600F02AF9707900F0DA
:1051000027F9B07900F024F9F07900F021F94FF097
:10511000FF3000EB480040F0B000C0B200F0DCF817
:10512000484600F0D9F8504600F0D6F8307A00F042
:105130000FF9707A00F00CF9B07A00F009F9F07A02
:1051400000F006F9307B00F003F9707B00F000F905
:10515000B07B00F0FDF8F07BBDE8F04700F0F8B858
:105160002DE9F04381B080467E2000EB480040F0FE
:10517000B000C0B216460D4600F0AEF8A5F1010928
:10518000012060F31F19484600F0A6F8002000F047
:10519000A3F847F24871C0F60001B001085C01EBCA
:1051A000861500F0D5F86878AE78EF782C7900F0A5
:1051B000CFF8304600F0CCF8384600F0C9F8204669
:1051C00000F0C6F8687900F0C3F8A87900F0C0F8DC
:1051D000E87900F0BDF8287A00F0BAF8687A00F0B3
:1051E000B7F8A87A00F0B4F8E87A00F0B1F8287BB4
:1051F00000F0AEF8687B00F0ABF8A87B00F0A8F8F0
:10520000E87B00F0A5F84FF0FF3000EB480040F0DD
:10521000B000C0B200F060F8484600F05DF8002031
:1052200000F05AF895F8200000F092F895F8210067
:1052300000F08EF895F8220000F08AF895F8230027
:1052400000F086F895F8240000F082F895F8250023
:1052500000F07EF895F8260000F07AF895F827001F
:1052600000F076F895F8280000F072F895F829001B
:1052700000F06EF895F82A0000F06AF895F82B0017
:1052800000F066F895F82C0000F062F895F82D0013
:1052900000F05EF895F82E0000F05AF895F82F000F
:1052A00001B0BDE8F04300F053B80000F0B581B0A4
:1052B000144612786AB10D46064600277819C1B225
:1052C000D2B23046FFF7E0FE0137F8B2225C002A86
:1052D000F4D101B0F0BD0000B0B540F60044C4F216
:1052E0000104054620464FF400710122FCF72CFC16
:1052F00020464FF480710122FCF726FC20464FF433
:1053000000710022FCF720FC20464FF4807100223F
:10531000FCF71AFC7820FFF7AFFD0020FFF7ACFD8B
:105320002846FFF7A9FD20464FF400710022FCF744
:105330000BFC20464FF480710122FCF705FC20464F
:105340004FF400710122BDE8B040FCF7FDBB000046
:10535000B0B540F60044C4F20104054620464FF4BF
:1053600000710122FCF7F0FB20464FF4807101220E
:10537000FCF7EAFB20464FF400710022FCF7E4FB47
:1053800020464FF480710022FCF7DEFB7820FFF707
:1053900073FD4020FFF770FD2846FFF76DFD2046A6
:1053A0004FF400710022FCF7CFFB20464FF48071D0
:1053B0000122FCF7C9FB20464FF400710122BDE831
:1053C000B040FCF7C1BB0000002804BF00207047BC
:1053D00000F0D2B82DE9F04182B0DDF82080074618
:1053E00024201C4615460E4600F092FD39463246F2
:1053F0002B46CDE9004800F0ADF802B0BDE8F081E1
:105400007047000070470000FDF72EBA704700009B
:10541000FEE7000010B50446012898BF012400BF34
:10542000204601F029F9002818BF10BD00F062F9EC
:1054300008B18047F4E7002010BD0000F0B581B04E
:105440000C460546012898BF0125042998BF04246D
:105450000027684621462A460097FBF739FA00984C
:1054600078B96E4600F046F950B180473046214683
:105470002A460097FBF72CFA00980028F2D000E0AB
:10548000002001B0F0BD000010B50446016000200E
:10549000A06000F0E3FA01462046616010BD000004
:1054A0002DE9F04381B00E46044600F0D7FA80465D
:1054B000FBF728F9616807460846FBF723F9014620
:1054C0003846FAF781FE43F2BD71C3F28651FAF70E
:1054D00081FE00210746FBF783F828B141F26F27D0
:1054E000C3F6832710E000BF49F69A11C3F699610D
:1054F0003846FBF767F838B9A6603046C4F8048030
:1055000001B0BDE8F08300BF2568D4F808903846A4
:105510002946FAF707FE01462846FAF78DFE0546AA
:105520004FF07E502946FAF74FFE01463046FAF713
:1055300051FE064628464946FAF74CFE3146FAF730
:10554000F1FD0646A0603046C4F8048001B0BDE815
:10555000F083000010B5DDE902EC0446002084E889
:105560000E40C4E904C0C4E9060000F077FA014621
:105570002046216210BD00002DE9F04F85B00F4696
:10558000044600F06BFA216A0390401AFBF7BAF860
:1055900043F2BD71C3F28651FAF71CFE0021834627
:1055A000FBF710F8054658464FF07C51FBF734F8EE
:1055B00000281CBF41F26F2BC3F6832B002D1CBFAC
:1055C00041F26F2BC3F6832BA068D4E9001500903D
:1055D000E06802903846FAF7FDFDE669019028463A
:1055E0005946FAF7F7FD4FF07C51FAF7F3FDD4F87E
:1055F00014A0054638465146FAF794FD0146284660
:10560000FAF7E8FD3146FAF78DFDD4F8109006461A
:1056100089F000484146FAF7E3FF0546304649461F
:10562000FAF7FAFF002818BF4E4638465146002DBB
:1056300018BF46460497FAF7C7FD0099FAF7CAFD66
:105640005946FAF7F9FD054601983146FAF76AFD21
:1056500001462846FAF766FD41460546FAF7C0FFBF
:10566000074628464946FAF7D7FF002818BF4D4697
:10567000002F029F4FF00001384618BF4546FAF749
:10568000A1FFF0B9D4F8188028464146FAF79CFDEE
:105690005946FAF7D1FD39468246FAF793FF08B921
:1056A000384607E087F0004950464946FAF7A6FF1A
:1056B00038B948465946FAF78DFD4146FAF732FDAA
:1056C0000546049804F1140161C10399284621623A
:1056D00005B0BDE8F08F84B0844601A80EC040F24A
:1056E000040001AAC2F200006146009200F046FCEC
:1056F000AFF3008040F26800C2F20000006870471B
:1057000001A0FFF7E8FF00BF6261645F616C6C6F2E
:105710006320776173207468726F776E20696E20E2
:105720002D666E6F2D657863657074696F6E73207A
:105730006D6F64650000000010B504460846FAF776
:10574000D8FF01462046FAF745FD10BD10B5FBF71E
:1057500018F84DF64A0242F2FB13C4F61252C4F294
:10576000190301F03FFEFBF71FF800210446FAF78A
:1057700045FF00281CBF204610BD2046FBF701F85E
:105780004DF64A0242F2FB13C4F61252C4F2190358
:10579000FAF790FDFBF708F810BD000080B582B065
:1057A000019040F20810C2F2000001A901224FF658
:1057B000FF73FEF7F7F9019802B080BD80B584B0A1
:1057C0000020ADF80E0002200DF10E01CDE9001011
:1057D00040F26C004FF0320CC2F200006C210C223F
:1057E0000123CDF808C0FCF74FFE002818BFFBF7D7
:1057F00087FBBDF80E0000BA000C04B080BD0000AD
:105800002DE9F04381B0044600F028F9FAF77AFF59
:10581000D4E90B19D4F81480FAF7D6FC43F2BD7121
:10582000C3F28651FAF7D6FC00210646FAF7CAFE03
:10583000054630464FF07C51FAF7EEFE00281CBFBB
:1058400041F26F26C3F6832640464946002D1CBF11
:1058500041F26F26C3F68326FAF7B6FC20F0004526
:105860002846FAF78EFF4DF64A0242F2FB13C4F6C1
:105870001252C4F20903FAF7EBFE38BB4046FAF7BE
:1058800080FF4DF64A0242F2FB13C4F61252C4F2F4
:105890001903FAF70FFD054648460F46FAF771FF60
:1058A00002460B4628463946FAF7A5FD054630461E
:1058B00021F00047FAF765FF02460B4628463946B5
:1058C000FAF711FEFAF770FF04E000BF28463146F0
:1058D000FAF7B2FCA56A31460746C4F83080FAF7F9
:1058E00079FC2946FAF71EFC01463846A16201B050
:1058F000BDE8F08394B0FCF7C5FF00240120CDE99A
:105900000F44CDE90D440A900E904FF4E0104FF48F
:105910008031022513900AA80494CDE90244CDE910
:105920000B14CDE91151FDF759FA28B1EFF31080AE
:1059300072B600BFFEE700BF0F20CDE905054FF4AA
:105940008060CDE9080405A802210794FDF740F91D
:1059500020B1EFF3108072B6FEE700BF0220019085
:105960004FF40040039001A8FDF7B0F820B1EFF329
:10597000108072B6FEE700BFFFF738F8FFF794F823
:10598000FFF7B4F8FFF7A6F9FEF7E0FFFFF720FBFB
:10599000012001210022FFF7E3FB01200221012267
:1059A000FFF7DEFB47F64A64C0F60004012005213C
:1059B0002246FFF77BFC022001210222FFF7D0FBE9
:1059C000022002210322FFF7CBFB02200521224601
:1059D000FFF76CFC40F23804C2F200042046FBF7EB
:1059E00095FA40F60000C4F2010001210122FCF703
:1059F000ABF840F2C005C2F2000528460021FDF7D1
:105A0000B3FF28460021FDF765FC28460421FDF779
:105A1000ABFF28460421FDF75DFC28460821FDF771
:105A2000A3FF28460821FDF755FC28460C21FDF769
:105A30009BFF28680A2101642068416841F08001C9
:105A400041602046FBF758FD40F25410C2F20000BE
:105A50000721FFF75FF900BFFEE70000B0B582B095
:105A60004EF21004CEF200042068FCF773F861686F
:105A700040F250150131C2F200052960A2688A1A6D
:105A800001922268D20305D5FCF764F82968A26860
:105A90008A1A0192019A4FF47A735A43B2FBF1F1D8
:105AA00000FB0310002102B0B0BD00002DE9F04161
:105AB0008CB090F8B81001297CD0002940F09E806D
:105AC0004CF6CD484FF081410022C3F6CC58C0E9D6
:105AD0002521C0F8B0800446FFF7C0FFFAF712FE98
