:020000040800F2
:10000000C811002005010008ED1E000805160008B3
:10001000C31D0008791100083D2B000800000000F6
:100020000000000000000000000000004D27000854
:10003000C313000800000000C1240008C9280008FC
:100040001F0100081F0100081F0100081F01000810
:100050001F0100081F0100081F010008C513000848
:100060001F0100081F0100081F010008AD11000852
:100070001F0100081F0100081F0100081F010008E0
:100080001F0100081F0100081F0100081F010008D0
:100090001F0100081F0100081F0100081F010008C0
:1000A0001F0100081F0100081F0100081F010008B0
:1000B0001F0100081F0100081F0100081F010008A0
:1000C0001F0100081F0100081F0100081F01000890
:1000D0001F0100081F0100081F0100081F01000880
:1000E0001F0100081F0100081F010008DFF810D0E1
:1000F00000F03EFD0048004771360008AFF3008075
:10010000C81100200648804706480047FEE7FEE782
:10011000FEE7FEE7FEE7FEE7FEE7FEE7FEE7FEE7B7
:10012000092A0008ED00000838B5D0E90221491E6F
:1001300001EB410102EBC1014268C1EB011102EB8D
:1001400081010268C1EB011102EB8102D0E90431A7
:1001500001EB410103EB81013023A1F5527191FBC9
:10016000F3F4174D6C4302EBC41291FBF3F403FB61
:10017000141100921A2902DB124B1A4400920C222D
:1001800091FBF2F3104C6343009C04EBC313009308
:1001900091FBF2F302FB13110C4A08E0491E40F2F6
:1001A000A324535C6343009C04EBC3130093002916
:1001B000F4DC0146684600F081FB009838BD000081
:1001C0003F0C0F008051010067C20300F84900088E
:1001D00010B5431A934209D28318881803E010F827
:1001E000011D03F8011D521EF9D210BD40EA0103A2
:1001F0009B0703D009E008C9121F08C0042AFAD2DD
:1002000003E011F8013B00F8013B521EF9D210BD8A
:10021000D2B201E000F8012B491EFBD27047002248
:10022000F6E710B513460A4604461946FFF7F0FFF5
:10023000204610BD10B5002200E0521C835C8C5C8F
:10024000A34201D1002BF8D1D8B2E1B2401A10BDBF
:1002500030B504460020034600E05B1C934203D205
:10026000E05CCD5C401BF8D030BDF0B480EA010208
:10027000D40F4200B2EB410F02D2024608461146AB
:100280004A0042D0C30DDDB2C1F3C752AD1A202DD2
:1002900035DAC1F3160141F4000204B15242C5F14E
:1002A000200602FA06F12A411044B3EBD05F23D0B6
:1002B000C4B1012DA0EBC35009DCF0BC4FF00042EB
:1002C00002EAC352DBB200F5000000F046BB40007A
:1002D00000F1807000EBC350A0F1807040EAD17053
:1002E000490009E0490841EAC071A0EBC35000F59C
:1002F0000000400800EBC350F0BC00F025BB614299
:10030000012202EB4101001BF6E7F0BC704781F0CF
:100310000041AAE780F00040A7E780EA010210B59B
:1003200002F00043400022D04A001FD0010E01EB32
:100330001261C0F35600C2F3560240F4000042F4CA
:100340000002A0FB022000047F39140400D0401CEE
:1003500050EA124001D44000491EC2B20C0604EB20
:10036000D010401C4008802A02D003E0002010BDBD
:1003700020F00100002900DA0020184310BD30B43D
:1003800080EA010202F0004530F0004221F0004016
:1003900013D090B1C30DD40DC2F31601C0F31600F3
:1003A000E41A41F4000140F400027D34914201D38B
:1003B000641C00E04900002C02DA30BC00207047C9
:1003C0004FF400000023914201D3891A03434008EF
:1003D0004FEA4101F7D151B1914202D14FF00041B2
:1003E00005E002D24FF0010101E06FF0010103EBE3
:1003F000C450284430BC00F0A7BA2DE9FE4F804617
:1004000081EA0300C00F0C46009021F0004123F068
:100410000045B8EB0200A94105D24046214690466E
:100420001C460B46024623F00040104347D0270DE0
:10043000C7F30A00C3F30A510290401A0190402802
:100440006BDAC3F3130040F4801B0098924620B18E
:100450000023D2EB030A63EB0B0B01985946C0F162
:100460004002504600F0F3F906460D465046594604
:10047000019A00F00BFA10EB08006141002487EAB2
:10048000115284EAE7731A4340D0009A62B3019A8A
:10049000012A4FEA075215DC001B61EB02014FF005
:1004A000004202EA0752CDE90042001C41F58011EA
:1004B00032462B4600F08EFA03B0BDE8F08F40467E
:1004C0002146F9E7001B61EB0201001C41F5801396
:1004D00000185B412018A2F5001747EB030140EA22
:1004E000D570B6196D4111E06D084FEA360645EA40
:1004F000C0754FEA0752001B61EB0201001C41F579
:10050000801149084FEA30000019514132462B460C
:1005100003B0BDE8F04F00F04EBA00980122400051
:100520000023D0EB020263EBE073009821464FEA10
:10053000E074B8EB000061EB0401E9E783F00043ED
:100540005BE781F0004158E72DE9FE4F81EA0304A3
:1005500004F0004421F0004100944FF0000B23F020
:10056000004350EA01045ED052EA03045BD0C3F3B7
:100570000A54C1F30A552C44A4F2F3340194A0FBAD
:100580000254C1F3130141F48011C3F3130343F484
:10059000801301FB024400FB034E840A970A44EADD
:1005A000815447EA8357A4FB076802958D0A05FB2F
:1005B00007854FEA932C04FB0C542705029D4FEA54
:1005C000065847EA1637B5EB08056EEB070C870EA1
:1005D000920E47EA811742EA8312A7FB0201B6EBAB
:1005E0000B0164EB00042B0D43EA0C335E1844EB63
:1005F0001C50DA465146E7FB0201C5F313044FEAEB
:100600000B3343EA14534FEA0432019C43EA0603D6
:10061000A4F10C040294009CCDE900B400F0DAF9D6
:1006200003B0BDE8F08F00200146F9E72DE9F04D59
:1006300081EA030404F0004B21F0004514464FF01A
:10064000000A23F0004150EA050220D054EA0102DA
:100650001DD0C5F30A570246C5F31303C1F31300B7
:10066000C1F30A5640F4801543F48013A7EB060843
:10067000101BD64608F2FD3873EB050002D308F1D3
:10068000010801E092185B41B8F1000F03DA002085
:100690000146BDE8F08D00204FF4801106468446E7
:1006A0000EE0171B73EB050705D3121B63EB050365
:1006B00006434CEA010C49084FEA300092185B41AE
:1006C00050EA0107EDD152EA030012D082EA040099
:1006D00083EA0501084305D0101BAB4106D2012275
:1006E000002306E000224FF0004302E06FF0010219
:1006F00053101AEB06004CEB085110EB0A0041EBCB
:100700000B01BDE8F04D00F056B9962300221146CA
:1007100000F023B90EB5C10F80EAE0700844CA07A3
:10072000002140F233438DE80E000A460B4600F0EC
:1007300051F903B000BDC1F30A5210B5C1F3130162
:1007400040F2FF3341F480119A4201DA002010BDDB
:1007500040F233439A42A2F2334203DC524200F0A9
:1007600085F810BD904010BD00F0004230F0004010
:100770000AD0C10D01F56071C0F3160042EA0151C3
:10078000C20840071143704700200146704700002F
:1007900030B5041E71F1000404DB4FF00044404208
:1007A00064EB0101141E73F1000405DB1C464FF0DD
:1007B0000043524263EB0403994208BF904230BDAC
:1007C00030B50B46014600202022012409E021FA21
:1007D00002F59D4205D303FA02F5491B04FA02F51E
:1007E0002844151EA2F10102F1DC30BD2DE9F05FB5
:1007F0000546002092469B46884606468146402490
:100800001BE0284641464746224600F02FF8534653
:100810005A46C01A914110D311461846224600F09C
:1008200016F82D1A67EB01084F46224601200021D9
:1008300000F00DF817EB00094E41201EA4F1010451
:10084000DFDC484631462A464346BDE8F09F202A71
:1008500004DB203A00FA02F1002070479140C2F117
:10086000200320FA03F3194390407047202A04DB49
:10087000203A21FA02F00021704721FA02F3D04019
:10088000C2F120029140084319467047202A06DB36
:10089000CB17203A41FA02F043EAE07306E041FA4E
:1008A00002F3D040C2F1200291400843194670473C
:1008B000014900F003B800009805002010B5006859
:1008C0003C22B0FBF2F302FB1303B0FBF2F00B602F
:1008D000B0FBF2F302FB1303B0FBF2F018224B6003
:1008E000B0FBF2F302FB1303B0FBF2F0021D8B60CE
:1008F0000723B2FBF3F403FB1422800040F2B5534C
:1009000000F66C308A61B0FBF3F2B0FBF3F403FB4A
:100910001400443280084A61C8613B2802D3920720
:1009200000D0401C0022074C13460A61E25C824260
:1009300003D8801A5B1C0B61F8E7401CC8600846AE
:1009400010BD0000104A00080029A8BF7047401CD5
:10095000490008BF20F00100704710B4B0FA80FCD5
:1009600000FA0CF050EA010404BF10BC704749B112
:10097000CCF1200421FA04F411FA0CF118BF012182
:1009800021430843A3EB0C01CB1D4FEA00614FEA62
:10099000102042BF002010BC704700EBC350104431
:1009A0000029A4BF10BC7047401C490008BF20F0BC
:1009B000010010BC704710B5141E73F1000408DA72
:1009C000401C41F1000192185B411A4301D120F013
:1009D000010010BD2DE9F04D92469B4611B1B1FAD0
:1009E00081F202E0B0FA80F220329046FFF72FFF4A
:1009F00004460F4640EA0A0041EA0B0153465A46B4
:100A0000084313D0114653EA010019D0C8F140023F
:100A10005046FFF72BFF05460E46504659464246C4
:100A2000FFF715FF084305D0012004E020463946B2
:100A3000BDE8F08D0020054346EAE0762C433743BD
:100A40000A986305E40AA0EB08000022FD0A44EAC4
:100A500047540A3002D500200146E9E70105101984
:100A60006941DDE9084500196941BDE8F04DA2E79B
:100A700070B521F0004303430CD0C1F30A550024A4
:100A8000D5EB040564EB0403D617AD1AB34102DBC2
:100A90000020014670BD201841EB025170BD2DE9C8
:100AA000F04D00231A461B1A8A4103DB0020014641
:100AB000BDE8F08DC1F30A52C1F3130141F4801572
:100AC0004FF0000BD10702D100186D41521E0027D4
:100AD000044640F2FF11384601EB620A3E4680466A
:100AE000024600204FF48011FFF7C0FEC219714189
:100AF000BB1846EB0100B4EB030C75EB000C04D300
:100B0000E41A65EB000517460E46241908F10100AA
:100B10006D4180463428E3DDF91946EB0600091BD8
:100B2000A84103D24FF0FF32134601E000221346E2
:100B30001BEB070046EB0A51BDE8F04DFFF73BBF4A
:100B4000C1F30A52C1F3130140F2FF3341F48011A3
:100B50009A4202DA00200146704740F233439A423B
:100B6000A2F2334202DC5242FFF780BEFFF76FBEB3
:100B7000064C074D06E0E06840F0010394E80700EA
:100B800098471034AC42F6D3FFF7B4FA1C4A000879
:100B90003C4A000821B1826842F00102826003E011
:100BA000826822F001028260704721B1826842F4BB
:100BB0008072826003E0826822F4807282607047F3
:100BC00000B58BB00121084601F098FC1B4800F0ED
:100BD00015FB1B4800901B480190002002906420E8
:100BE0000390002004908020059040000690800033
:100BF0000790202008900002099000200A90694682
:100C00000E4800F0C0FB012202210C4800F0B2FBAC
:100C10000B20012181404209920002F1E022C2F83A
:100C2000001100BF0121054800F0DCFA0121044851
:100C30004C38FFF7BAFF0BB000BD000008000240BF
:100C40004C240140D0040020014600208A6802F0B4
:100C500004020AB1012000E0002070470146002094
:100C60008A6802F008020AB1012000E00020704703
:100C700030B502460020002350680F4C20400D790B
:100C80000C6844EA05242043506090680B4C2040D7
:100C9000D1E902542C434D7944EA45042043906045
:100CA000D06A20F470000C7C641EE4B2234340EA56
:100CB0000350D06230BD0000FFFEF0FFFDF7F1FFF2
:100CC000F0B504460D4600200021092D11DDE06835
:100CD000A5F10A0606EB4607072606FA07F1884340
:100CE000A5F10A0606EB460603FA06F10843E060A2
:100CF0000CE0206905EB4507072606FA07F1884353
:100D000005EB450603FA06F108432061072A0FDACE
:100D1000606B561E06EB86071F2606FA07F188430E
:100D2000561E06EB860605FA06F10843606322E0CC
:100D30000D2A0FDA206BD61F06EB86071F2606FA50
:100D400007F18843D61F06EB860605FA06F108432D
:100D5000206310E0E06AA2F10D0606EB86071F266D
:100D600006FA07F18843A2F10D0606EB860605FA9E
:100D700006F10843E062F0BD816841F0080181603E
:100D8000704721B1826842F4A002826003E0826869
:100D900022F4A0028260704710B586B00020019056
:100DA00001208DF808008DF809004FF460200390B1
:100DB000002004900A208DF8140001A90C48FFF7C8
:100DC00057FF002408E0601CC2B2052321460848F2
:100DD000FFF776FF601CC4B20A2CF4DB0121044843
:100DE000FFF7D8FE01210248FFF7CBFF06B010BD88
:100DF00000240140816841F004018160704710B512
:100E000000F006F8FFF7DCFEFFF7C6FF10BD00009C
:100E100000B585B001214FF4037001F08FFB4FF452
:100E2000004001F05FFB002000908DF804008DF879
:100E300005004FF4602002900020039001208DF8FF
:100E4000100069460D48FFF713FF01210B48FFF71B
:100E5000A1FE0A48FFF790FF00BF0848FFF7FEFE1B
:100E60000028FAD10548FFF7C5FF00BF0348FFF788
:100E7000EBFE0028FAD105B000BD000000240140BF
:100E80007047000010B50D480068401C0B49086011
:100E900000F0EAFB0949087100F012F80748006801
:100EA0006421B0FBF1F201FB120008B900F04CF82C
:100EB00000F048F8FFF7E4FF10BD000080000020BC
:100EC00010B51E48007901280DD11C484079012831
:100ED00005DA1A484079401C184948712CE0002076
:100EE0001649487128E01548007902280CD11448A9
:100EF0000078012803D01248007802281CD110483D
:100F0000016B401C884717E00C48007903280CD17E
:100F10000B480078012803D00948007802280BD13B
:100F20000748416B401C884706E0044800790428C4
:100F300002D10349886B804710BD0000800000206B
:100F4000340000207047000010B586B000F0EEFFBE
:100F50003648407930B1012838D002285DD00328C6
:100F60005DD15BE032480078012803D0304800783A
:100F7000022812D12E4800792D49C9782C4A92783E
:100F80002B4B5B78CDE90032CDE9021029A3082272
:100F90000021084601F0DFF805E02CA3082200211B
:100FA000084601F0D8F82DA308221021002001F0F6
:100FB000D2F82DA308222021002001F0CCF82DA387
:100FC00008223021002001F0C6F829E000241FE0AB
:100FD0001748801D00EB8400C0781549891D01EB7E
:100FE00084018978124A921D02EB84025278104BD8
:100FF0009B1D13F82430CDE90043CDE90221049074
:10100000210120A30822002001F0A5F8601CC4B231
:1010100007484079A042DBDC02E001E000E000BFCD
:1010200000BF01F0F3F906B010BD00008000002001
:101030003400002049443A30782530325825303287
:1010400058253032582530325800000049443A3093
:101050007830303030303030300000004164643A55
:101060004B6579320000000044656C6574653A4B4D
:101070006579330044656C657465416C6C3A4B6509
:1010800079340000494425643A30782530325825B7
:1010900030325825303258253032580010B51648B5
:1010A0000068401C14490860084600681421B0FB21
:1010B000F1F201FB1200E8B91048007868B9104855
:1010C000008800B2B42815DA4FF400510D4800F042
:1010D00092FA0120094908700CE00948008800B222
:1010E000DC2807DD4FF40051064800F082FA0020AA
:1010F0000249087010BD000070000020740000203C
:1011000030000020000C014008B50121082001F04A
:1011100015FA10208DF8030003208DF802004FF41B
:101120000050ADF800006946044800F086F94FF41D
:101130000051024800F05DFA08BD0000000C0140BB
:1011400008B501460020009003480090009808442C
:1011500000900098008808BD006C004008B500228F
:101160000092044A0092009A02440092009A116090
:1011700008BD0000006C004000BFFEE770B50546EA
:101180000C460026284601F073FA064626EA0401BA
:10119000284601F0D5FC70BD02480068401C01499A
:1011A00008607047780000207047000010B50220EA
:1011B00000F0CAF828B1022000F006F80120014929
:1011C000087010BD1D00002000F0805111B10349CE
:1011D000086001E0024948607047000004040240D2
:1011E0000000024021B1026842F00102026004E006
:1011F00002684FF6FE731A400260704701684FF6AE
:10120000FE72114001600021016041608160C16097
:101210004B49884208D14A490839496841F00F01D1
:10122000474A083A51608AE045491431884208D15A
:1012300043490839496841F0F001414A083A516090
:101240007DE03F492831884208D13D490839496845
:1012500041F470613A4A083A516070E038493C31D3
:10126000884208D136490839496841F47041344A06
:10127000083A516063E032495031884208D1304920
:101280000839496841F470212D4A083A516056E006
:101290002B496431884208D129490839496841F409
:1012A0007001274A083A516049E02549783188425F
:1012B00008D123490839496841F07061204A083A49
:1012C00051603CE01F49884206D1011F096841F086
:1012D0000F01021F116032E01A491431884208D10F
:1012E0001849091F096841F0F001164A121F1160E0
:1012F00025E014492831884208D11249091F09689C
:1013000041F470610F4A121F116018E00D493C3121
:10131000884208D10B49091F096841F47041094A04
:10132000121F11600BE007495031884207D105496F
:10133000091F096841F47021024A121F11607047A9
:10134000080002400804024001460020002201F08B
:10135000805313B1054B1A6801E0054B1A6802EA85
:1013600001030BB1012000E000207047000402409F
:10137000000002401AB103680B43036002E00368F7
:101380008B430360704710B50022026847F6F07384
:101390009A430C6A8B6823430C6923434C692343AB
:1013A0008C692343CC6923434C6A23438C6A2343CF
:1013B0001A430260CB6843600B6883604B68C3606C
:1013C00010BD704710B5022000F01AF801280CD1AA
:1013D0000221064800F004F920B905480088401CA5
:1013E00003490880022000F005F810BD0008014004
:1013F0008E0000200149086070470000140401407D
:10140000014600200022074B1B6803EA0102054B3E
:1014100014331B680B4013B10AB1012000E0002017
:10142000704700000004014002480068401C014968
:10143000086070477C00002070472DE9F0410246AB
:1014400000250026002000230024002791F803C077
:101450000CF00F0591F803C00CF0100CBCF1000F5C
:1014600003D091F802C04CEA050591F800C0BCF128
:10147000000F31D0146800202BE04FF0010C0CFA63
:1014800000F3B1F800C00CEA03069E4220D18300AD
:101490004FF00F0C0CFA03F7BC4305FA03FC4CEABF
:1014A000040491F803C0BCF1280F06D14FF0010CE1
:1014B0000CFA00FCC2F814C00AE091F803C0BCF1B9
:1014C000480F05D14FF0010C0CFA00FCC2F810C017
:1014D000401C0828D1D31460B1F800C0BCF1FF0F44
:1014E00034DD546800202EE000F1080C4FF00108B4
:1014F00008FA0CF3B1F800C00CEA03069E4221D1B1
:1015000083004FF00F0C0CFA03F7BC4305FA03FC01
:101510004CEA040491F803C0BCF1280F05D100F196
:10152000080C08FA0CF8C2F8148091F803C0BCF15A
:10153000480F07D100F1080C4FF0010808FA0CF829
:10154000C2F81080401C0828CED35460BDE8F0815A
:10155000F0B50A46002300240021002500F00046D3
:10156000B6F1004F02D11D4EF16901E01B4E7168CA
:10157000C0F3034583B200F44016B6F5401F08D10E
:1015800021F07061154E766826F07066134F7E600C
:1015900012E000F48016B6F5801F06D1032606FA85
:1015A00005F4A14341F0706106E0460D360103FAEF
:1015B00006F6B14341F0706122B1460D360103FADF
:1015C00006F6314300F00046B6F1004F02D1034E5B
:1015D000F16101E0014E7160F0BD000000000140CA
:1015E0000246002093680B400BB1012000E0002070
:1015F000704741617047016170470AB1016100E0C5
:101600004161704700BFFEE708B50121142000F0DA
:1016100095FF48208DF8030003208DF8020001207B
:10162000ADF8000069460E48FFF707FF4FF4004091
:10163000ADF8000069460B48FFF7FFFE4FF480400D
:10164000ADF8000069460748FFF7F7FE4FF4005079
:10165000ADF8000069460348FFF7EFFE08BD000043
:101660000008014000100140002100201DE0114A47
:1016700002EB80029278B2B100220E4B03EB8003A2
:101680009A7030B1012806D0022806D0032808D16C
:1016900005E0012105E0022103E0032101E004212E
:1016A00000BF00BF03E0421CD0B20428DFDB00BF54
:1016B000084670479400002010B534480078401C5C
:1016C00032490870084600780A285EDB002008705E
:1016D00001212F48FFF784FF2E4908704FF4004185
:1016E0002D48FFF77DFF2B4908714FF480412A48B0
:1016F000FFF776FF274908724FF400512648FFF79D
:101700006FFF2449087300203DE0224901EB80016E
:10171000497821B1012910D0022931D126E01D4993
:1017200011F8201041B91B4901EB80014978491C8F
:10173000184A02EB8002517022E0164911F820107D
:1017400071B9144901EB80014978491C114A02EB37
:101750008002517001210F4A02EB8002917004E077
:1017600000210C4A02EB8002517009E0094911F88E
:10177000201021B10021074A02EB8002517000BF06
:1017800000BF411CC8B20428BFDB10BD14000020FC
:1017900000080140940000200010014010B500F046
:1017A00005F80149088010BD300000202DE9FC5FDC
:1017B0000024A146A346A24600200DE000EB8001D4
:1017C000062202EB4101234A32F81110C1F30B014A
:1017D00021448CB2411CC8B20A28EFDB0A2094FBDA
:1017E000F0F084B22046FEF790FF81464FF08B4127
:1017F0004846FEF7C4FD05461749FEF78EFD8146B3
:1018000049461548FEF783FD064631464846FEF731
:10181000B6FD05461149FEF780FD83465846FEF7A2
:10182000A3FF07460E4A0F4B01F036FF00220E4B76
:10183000CDE90001FEF788FE0546FEF77CFF1FFAA2
:1018400080FABAF57A7F01DB40F2E73A5046BDE80C
:10185000FC9F0000D00400203333534000401C465E
:10186000BF7D1D386744E3BF0088E34008B5012110
:10187000042000F063FE4020ADF8000000208DF849
:10188000030003208DF8020069460248FFF7D5FDEA
:1018900008BD00000008014070B504460026002580
:1018A0000CE0184901EB850004222146FEF7D0FC2C
:1018B000C6B20EB9012070BD681CC5B21148801FA8
:1018C0004079A842EDDC0F48801F40790A2801DBEF
:1018D0000220F0E7002009E0225C0A49891F4B79C9
:1018E000891D01EB83010A54411CC8B20428F3DBB3
:1018F0000448801F4079401C0249891F487100201C
:10190000D9E700003A00002010B503211420FFF7AA
:1019100035FC10BD10B5142000F0AAFE044604F0FA
:10192000030018B90321142000F038FF10BDF0B5F2
:1019300087B00546002708210846FFF71FFC002155
:101940000D2001F0FDF880210E20FFF717FC9320F9
:101950008DF8040020208DF8050006A801AB0222B6
:1019600001A900900C2000F08FF90646262E10D118
:10197000002407E001A8005D285501A8005D47404C
:10198000601CC4B2042CF5DB01A8005DB84200D095
:10199000BB2680210E2000F001FF304607B0F0BDCD
:1019A00010B500200349487128210248801DFEF728
:1019B00036FC10BD340000202DE9F041054600261C
:1019C0001F48407910B90220BDE8F081002424E0CE
:1019D0001B49891D01EB840004222946FEF738FCCF
:1019E000C6B2C6B91648801D00EB84000021016014
:1019F000134840790A280EDA114B5F79631CFB1AF1
:101A00009A000F4B9B1D671C03EB870103EB8400BF
:101A1000FEF7DEFB05E0601CC4B209484079A04235
:101A2000D6DC00BF56B906484079002804DD0448DA
:101A30004079401E024948710020C5E70220C3E7F3
:101A40003400002010B5034800F050F80149491E49
:101A5000087010BD3500002008B501211C2000F0E1
:101A60006DFD2020ADF8000003208DF8020010204D
:101A70008DF8030069461C48FFF7DFFC1020ADF825
:101A8000000003208DF8020010208DF80300694645
:101A90001548FFF7D2FC0820ADF8000003208DF8B0
:101AA000020010208DF8030069460F48FFF7C5FCBF
:101AB0000420ADF8000003208DF8020004208DF80A
:101AC000030069460848FFF7B8FC0220ADF80000A3
:101AD00003208DF8020010208DF8030069460248AB
:101AE000FFF7ABFC08BD0000000801402DE9F04104
:101AF00086B00446032600273BE001A9522000F0EF
:101B000051F80546262D06D000F078F8FFF7FCFEC8
:101B1000FFF700FF2DE001A8FFF709FF0546262D7E
:101B200000D026E004221D4901A8FEF791FB08B170
:101B3000012000E000208046B8F1000F02D11848D3
:101B4000007888B9002008E001A9095C215401A9A6
:101B5000095C124A1154411CC8B20428F4DB01206C
:101B60000F490870012709E0012702200C4908707D
:101B700004E0301EA6F10101CEB2BED100BF47B1D4
:101B800007480078012802D106B0BDE8F0810220A4
:101B9000FAE70020024908700320F5E789000020D9
:101BA0008800002070B588B005460C46082108461C
:101BB000FFF7E4FA07210D2000F0C2FF03211420F3
:101BC00000F0ECFD8DF8085007A802AB012202A935
:101BD00000900C2000F058F80646262E09D10798F0
:101BE000102806D19DF8080020709DF8090060704B
:101BF00000E0BB26304608B070BD000010B50A24D6
:101C000002212048FFF7F7FC012001F00DFD022121
:101C10001C48FFF7EEFC012001F006FD02211948E7
:101C2000FFF7E9FC012001F0FFFC0F21012000F08B
:101C300087FF00BF012000F01BFD00F0100020B165
:101C4000201EA4F10101CCB2F4D1012001F0ECFC82
:101C50003D21112000F074FF1E212D2000F070FFA7
:101C600000212C2000F06CFF8D212A2000F068FF5D
:101C70003E212B2000F064FF4021152000F060FF82
:101C8000262010BD000801402DE9FE4F064688467B
:101C900091469A46DDF830B0BB20029000200190BA
:101CA00000900C2E06D00E2E09D11220019010208B
:101CB000009005E0772001903020009000E000BF08
:101CC00000BF019840F08001022000F039FF802120
:101CD0000420FFF753FA0021012000F031FF80219A
:101CE0000A2000F05BFD002505E018F8051009202A
:101CF00000F026FF6D1C4D45F7D33146012000F062
:101D00001FFF0C2E03D180210D2000F047FD042081
:101D100000F0AEFC044640F2DC5500BF042000F0A9
:101D2000A7FC04466D1E35B104F0010018B90098F7
:101D300020400028F2D080210D20FFF71FFA95B334
:101D4000062000F095FC00F01B0068BB26200290E6
:101D50000198204000F0010008B1CC2002900C2E28
:101D600024D10A2000F084FC04460C2000F080FC02
:101D700000F007072FB1601E07EBC000CBF8000092
:101D800002E0E000CBF8000004B90124122C00DDD1
:101D90001224002505E0092000F06AFC0AF805007D
:101DA0006D1CA542F7D301E0BB20029080210C20DE
:101DB00000F0F4FC0021012000F0C2FE0298BDE812
:101DC000FE8F00BFFEE710B50121080700F0A6FB5B
:101DD0000121C80600F0A2FB012000F06BFB0420EB
:101DE000FFF7AEF94AF2A551884220D0012000F059
:101DF000D3FB00BF612000F0B1FB0128FAD1400203
:101E000000F0D6FB012000F0CDFB00F01FFC00F03D
:101E100013FC49F63F4000F0FFFB00F00DFC00F022
:101E20003FF84AF2A5510420FFF798F912E001208B
:101E300000F0B2FB00BF612000F090FB0128FAD156
:101E4000400200F0B5FB012000F0ACFB00F0FEFB0F
:101E500000F0F2FB10BD000010B58CB000F0C4FB28
:101E600000F5E1400B900BA8FEF722FD04462C2262
:101E700021466846FEF7ACF9059800F26C700749F8
:101E800008800498401C4880039888800298C88085
:101E900001980881009848810CB010BD1E000020F8
:101EA00010B58CB010480088A0F26C7006900E48F7
:101EB0004088401E05900C48808804900A48C088DD
:101EC000039009480089029007484089019001A8C1
:101ED000FEF72AF9A0F5E144204600F08FFB00F060
:101EE000ABFB0CB010BD00001E000020704710B509
:101EF0004FF4A06000F006F800214FF0006000F001
:101F00000BF810BD02490143024A116070470000FE
:101F10000000FA050CED00E0024A0A400243024BC1
:101F20001A60704780FFFF1F08ED00E000200CE002
:101F3000002106E00022064B03EBC0135A544A1C52
:101F4000D1B28029F6DB421CD0B20828F0DB704702
:101F5000A40000202DE9F04304460D4616461F4616
:101F6000284638E0224631E0002A2DDB7F2A2BDC90
:101F7000002829DB3F2827DC4FEAE07C00EB5C7C73
:101F80004FEAEC0CDFF8588008EBCC1C1CF802C0C0
:101F900003464FEAE07800EB58784FEAE808A0EBF8
:101FA000C8094FF0010808FA09F82CEA080C0146A4
:101FB0004FEAE07800EB58784FEAE808DFF8209025
:101FC00009EBC81808F802C0511C0AB2A1199142C5
:101FD000CADC411C08B2E9198142C3DCBDE8F083C8
:101FE000A400002038B5002406E0002500E06D1CA8
:101FF000B5F57A7FFBD3641CB4F57A7FF5D3012164
:10200000082000F09BFA14208DF8030003208DF8BF
:1020100002004FF48070ADF8000069460A48FFF7EF
:102020000CFA4FF40070ADF8000069460648FFF75F
:1020300004FA012000F0FEF9012000F007FAFFF792
:1020400075FF00F0E3F938BD000C014070B505469E
:10205000002411E080212141294009B1012100E043
:102060000021084600F0F2F9012000F0E3F9002019
:1020700000F0E0F9601CC4B2082CEBDB012000F09A
:10208000D9F9002000F0D6F970BD10B5012000F09C
:10209000DDF9012000F0CEF9002000F0D7F9002092
:1020A00000F0C8F910BD10B5002000F0CFF90120F4
:1020B00000F0C0F9012000F0C9F910BD10B5FFF71C
:1020C00091FFAE2000F0CEF9D52000F0CBF98020B2
:1020D00000F0C8F9A82000F0C5F93F2000F0C2F9CF
:1020E000D32000F0BFF9002000F0BCF9402000F040
:1020F000B9F9A12000F0B6F9C82000F0B3F9DA2050
:1021000000F0B0F9122000F0ADF9812000F0AAF93A
:10211000CF2000F0A7F9D92000F0A4F9F12000F0B9
:10212000A1F9DB2000F09EF9302000F09BF9A420FB
:1021300000F098F9A62000F095F98D2000F092F9B2
:10214000142000F08FF9AF2000F08CF9FFF7EEFEBD
:1021500000F05CF910BD0FB470B5C2B005460E4674
:1021600014464AA8019002A8019A499900F054FD2A
:1021700000200190234602AA3146284600F0BEF80E
:1021800042B070BC5DF814FB70B505460C4645F0D6
:10219000B00000F067F9102141EA141000F062F974
:1021A00004F00F0000F05EF970BD0000F8B50646BF
:1021B0000F4614461D46082D0CD1A4F120000E49EF
:1021C00001EB00101023082239460090304600F041
:1021D00017F80FE0062D0DD1A4F1200000EB400010
:1021E000064901EB4000082306223946009030469C
:1021F00000F006F8F8BD0000BC400008AC4600083E
:102200002DE9FF4F80460E469146DDF834B000259B
:1022100000244A4631464046039BFFF79BFE00BF21
:102220005EE0002558E008EB0500002852DB08EBD3
:1022300005007F284EDC3046F11706EB5171C910BE
:102240000FB2F11706EB5171C910A6EBC10A002EAF
:1022500005DA781E07B20AF108000FFA80FA381979
:10226000002817DB3819072814DC3819224901EB3C
:10227000C01008EB0501405C04FB09511BF801107C
:1022800001FA0AF1084339191B4A02EBC11108EBA4
:10229000050288543819401C00281BDB3819401CE3
:1022A000072817DC3819401C134901EBC01008EB54
:1022B0000501405C04FB09511BF80110CAF108023A
:1022C000114108433919491C0B4A02EBC11108EBB3
:1022D00005028854681CC5B24D45A4DB601CC4B21D
:1022E0000399481EC11700EB5171012202EBE10175
:1022F000A14296DCBDE8FF8FA40000202DE9FE4F2F
:1023000007468A46144698460025AB46002672E0EA
:10231000605D00F0800058B94FF0010B2846691C41
:102320008DB2205C8DF8040000208DF8050013E0CC
:102330004FF0020B2846691C8DB2205C8DF804001A
:10234000605D00B95AE02846691C8DB2205C8DF8AA
:10235000050000208DF80600BBF1010F0BD19DF8A0
:102360000420B91908B243465146FFF71FFF06EB98
:10237000080086B23FE04FF000090EE0C9EBC9014A
:1023800001EB81011F4A881801A9FDF753FF00B92D
:102390000EE009F101001FFA80F9C9EBC90101EB58
:1023A0008101184A881818A1FDF744FF0028E5D1DB
:1023B00000BFB8F1080F12D1C9EBC90000EB8000D3
:1023C00010490844C01CB919009008B210231A46DD
:1023D0005146FFF715FF06F1100086B20BE0B8F189
:1023E000060F08D1B91908B206233F225146FFF75C
:1023F000DDFEB01D86B2605D002889D100BFBDE85A
:10240000FE8F0000E64800080000000010B5002420
:102410000BE000212046FFF7B7FE054901EBC41091
:10242000802100F02FF8601CC4B2082CF1DB10BD35
:10243000A400002010B5044622464FF480710248E3
:10244000FFF7DBF810BD0000000C014010B504469A
:1024500022464FF400710248FFF7CFF810BD00008C
:10246000000C014010B50446FFF70FFE7820FFF77F
:10247000EDFD0020FFF7EAFD2046FFF7E7FDFFF73F
:1024800012FE10BD70B505460E46FFF7FEFD782022
:10249000FFF7DCFD4020FFF7D9FD002404E0285DB4
:1024A000FFF7D4FD601CC4B2B442F8DBFFF7FBFDBC
:1024B00070BD0000014908627047000000000E4234
:1024C0007047000010B50121084600F037F80121DF
:1024D0000348FFF73DF801211C2000F02FF810BD44
:1024E0000002300001460020034A506820F44040BA
:1024F00008435060704700000010024029B1064AAE
:1025000052690243044B5A6104E0034A5269824310
:10251000014B5A61704700000010024029B1064A81
:10252000D2690243044BDA6104E0034AD269824370
:10253000014BDA61704700000010024029B1064AE1
:1025400092690243044B9A6104E0034A9269824310
:10255000014B9A61704700000010024010B501461F
:102560000022002300204A11012A02D1094C2368CD
:1025700006E0022A02D1074C236A01E0054C636A97
:1025800001F01F02012494401C400CB1012000E026
:10259000002010BD00100240014908607047000093
:1025A0008004424201490860704700003C044242F6
:1025B0000249096A0143014A116270470010024052
:1025C0000348008840F0100001490880704700006F
:1025D00004280040034800884FF6EF710840014985
:1025E0000880704704280040002103480188001F2C
:1025F000008841EA004070471C28004000B50246B0
:10260000FFF7DEFF100C03490880091D0A80FFF761
:10261000E1FF00BD1828004000B50246FFF7D0FFDB
:10262000C2F3034003490880091D0A80FFF7D2FF67
:1026300000BD00000828004000BF0348008800F0EB
:1026400020000028F9D0704704280040074800887F
:102650004FF6F77108400549088000BF034800881D
:1026600000F008000028F9D070470000042800405E
:102670002DE9F0410646002510213148FEF7B9FF4B
:10268000022000F0D1FF20212D48FEF7B2FF0220EA
:1026900000F0CAFF7E2000EA460040F080070824D0
:1026A00020E007F0800020B108212548FEF7A3FFB5
:1026B00003E008212248FEF79CFF022000F0B4FF4F
:1026C00010211F48FEF797FF022000F0ADFF7806AB
:1026D000070E10211A48FEF78CFF022000F0A4FF1D
:1026E000601EC4B2002CDCDC082416E01021144863
:1026F000FEF781FF022000F097FF6806050E042117
:102700000F48FEF76DFF054310210D48FEF771FFDE
:10271000022000F089FF601EC4B2002CE6DC10210C
:102720000748FEF768FF022000F07EFF20210448E2
:10273000FEF761FF022000F077FF2846BDE8F08138
:102740000008014010B5FFF787FB10BD704700007F
:1027500010B50E4800686421B0FBF1F201FB1200D5
:1027600020B9142000F054FFFFF718F8074800685C
:10277000C821B0FBF1F201FB120008B9FFF762F9C2
:1027800002480068401C0149086010BD2C00002070
:1027900010B5FFF76BF8FFF75FF910BD70B5054690
:1027A0000C4600262846FFF763FF064646EA04016A
:1027B000284600F0C5F970BD10B500F001F810BD55
:1027C0000CB50020019000903348006840F4803040
:1027D0003149086000BF3048006800F400300090C4
:1027E0000198401C0190009818B90198B0F5A06FAD
:1027F000F1D12948006800F4003010B101200090A8
:1028000001E0002000900098012843D1234800688F
:1028100040F01000214908600846006820F00300DD
:1028200008600846006840F0020008601A484068E6
:10283000194948600846406848600846406840F4C6
:10284000806048600846406820F47C104860084674
:10285000406840F4E81048600846006840F0807026
:10286000086000BF0C48006800F000700028F9D034
:102870000948406820F0030007494860084640685E
:1028800040F00200486000BF0348406800F00C00C0
:102890000828F9D10CBD00000010024000200240C1
:1028A000042808D14FF0E021096941F004014FF0FC
:1028B000E022116107E04FF0E021096921F00401F5
:1028C0004FF0E0221161704710B5FEF7F5FE2B487E
:1028D0000068401C294908600846007950B908463C
:1028E00001688068B1FBF0F200FB121010B9012002
:1028F000224908712148007B50B9204801680069CD
:10290000B1FBF0F200FB121010B901201B49087353
:102910001A48007D50B9194801688069B1FBF0F28E
:1029200000FB121010B90120144908751348007FEC
:1029300050B912480168006AB1FBF0F200FB1210B6
:1029400010B901200D4908770C4890F8240058B9B7
:102950000A480168806AB1FBF0F200FB121018B956
:102960000120064981F82400044800680449B0FBAE
:10297000F1F201FB12000149086010BDA40400201F
:10298000A086010010B56FF00400FFF789FF00BFBB
:10299000184800684FF47A71B0FBF1F0401EB0F1B6
:1029A000807FF5D213480068B0FBF1F0401E4FF075
:1029B000E021486148170021002807DA0A07140EB1
:1029C0000D4A00F00F031B1FD45403E00A07130E37
:1029D0000A4A135400BF00204FF0E021886107200D
:1029E0000861044800680649B0FBF1F00549087029
:1029F00010BD00000000002018ED00E000E400E041
:102A000040420F001C00002010B51348006840F041
:102A100001001149086008464068104908400E4905
:102A20004860084600680E4908400B49086008469F
:102A3000006820F4802008600846406820F4FE000A
:102A400048604FF41F008860FFF7B6FE4FF000604B
:102A50000449086010BD0000001002400000FFF8AB
:102A6000FFFFF6FE08ED00E010B5FFF791FEFEF760
:102A70004BFBFEF799FBFEF7DFFCFEF7C0F910BD3C
:102A800010B5FFF7F1FF002010490860087101211F
:102A90000E48816000200D49087305210B48016133
:102AA00000200A490875642108488161002007490F
:102AB00008773221054801620020044981F824008A
:102AC000012102488162FFF743FE10BDA4040020EB
:102AD00010B5FFF737FE18480079012804D100200F
:102AE00015490871FFF734FE1348007B012804D113
:102AF000002011490873FEF7D1FA0F48007D012824
:102B000004D100200C490875FEF746FB0A48007FF7
:102B1000012804D1002008490877FEF785FC064803
:102B200090F82400012805D10020034981F82400F1
:102B3000FEF7A8F910BD0000A404002000BFFEE7C6
:102B40002DE9F04106460D4610213248FEF751FDB1
:102B500020213048FEF74DFD7E2000EA460708247C
:102B600020E007F0800020B108212A48FEF743FD4D
:102B700003E008212748FEF73CFD022000F054FD49
:102B800010212448FEF737FD022000F04DFD7806A5
:102B9000070E10211F48FEF72CFD022000F044FD17
:102BA000601EC4B2002CDCDC082420E005F08000AC
:102BB00020B108211748FEF71EFD03E00821154843
:102BC000FEF717FD022000F02FFD10211148FEF73F
:102BD00012FD022000F028FD6806050E10210D48A8
:102BE000FEF707FD022000F01FFD601EC4B2002C9E
:102BF000DCDC10210748FEF7FEFC022000F014FD8B
:102C000020210448FEF7F7FC022000F00DFDBDE88E
:102C1000F08100000008014037B514460846064B15
:102C20006A46214600F06CF904466946002000F02F
:102C3000EAFC20463EBD000007360008490050EA85
:102C4000C12018BF04204A0D18BF40F0010040F217
:102C5000FF72B2EB515F08BF40F00200012808BFCD
:102C6000052070472DE9F0414F1E00EBC7010446D7
:102C7000D1E9000115461E4637F006020DD02A465E
:102C80003346FDF761FC7F1E04EBC703D3E9002345
:102C9000FDF7B3FB37F00602F1D1022F25D0042F48
:102CA00013D0062F18BFBDE8F0812A463346FDF742
:102CB0004BFCD4E90A23FDF7A0FB2A463346FDF777
:102CC00043FCD4E90823FDF798FB2A463346FDF779
:102CD0003BFCD4E90623FDF790FB2A463346FDF77B
:102CE00033FCD4E90423FDF788FB2A463346FDF77D
:102CF0002BFCD4E90223FDF780FB2A463346FDF77F
:102D000023FCD4E90023BDE8F041FDF776BB0000C9
:102D10000022134610460149FDF788BC0000F03F31
:102D2000FDF76BBB0022134610461146FDF77EBC33
:102D300040F2013200204FF0E041FDF799BE000063
:102D4000024A00201107FDF793BE000001FDFFFFBE
:102D500002E008C8121F08C1002AFAD17047704764
:102D6000002001E001C1121F002AFBD170470000C2
:102D70000149086070470000900000202DE9FF5FC6
:102D800082B00021DDE90430020DDDF840B00343DC
:102D900018D044F61050A2F2FF3242431514119895
:102DA00001281FD0A5EB0B00401C5FEA000A4FF082
:102DB00000064E4FDFF83891B046504615D5CAF19F
:102DC000000413E0119801244AA3012801D16FEAFD
:102DD0000B010298119AC0E90031C0E9024206B025
:102DE000BDE8F09FCBF10000DFE704460021404A38
:102DF000491842EB0450CDE9001012E0E00707D07B
:102E000032463B4640464946FDF79EFB8046894692
:102E100032463B4610461946FDF796FB06460F46DE
:102E20006410002CEAD1DDE90401DDE90023BAF1E8
:102E3000000F06DAFDF788FB42464B46FDF784FBA0
:102E400005E0FDF7F3FB42464B46FDF7EFFB04467A
:102E50000E460022284BFDF79BFC03D84FF0FF30B5
:102E6000014607E00022254B20463146FDF7C5FA12
:102E7000FDF766FE102409E0002C0ADB0A2200237D
:102E8000FDF7B4FC039B30321A55641E50EA010270
:102E9000F2D1641C039AC4F111031444119A012A5B
:102EA00003D0012208430DD10AE0084304D00020DA
:102EB0004FF0110B119072E7A3EB0B056D1E0DE0A7
:102EC0005B4504DD4FF0000205F1010504E003DA83
:102ED0004FF00002A5F10105002AECD002981199EB
:102EE000C0E90231C0E9004579E700000000144064
:102EF0000000F03F300000000000F0430000E03F21
:102F00002DE9FF4F95B09A46884606460025EEE12A
:102F1000252877D100242746F94A0121039400E0AF
:102F2000044316F8013F203B01FA03F01042F7D1A9
:102F300030782A2811D06FF02F033078A0F13002BA
:102F4000092A16D8039A44F0020402EB820203EB2A
:102F500042021044761C0390EFE758F8042B0392CA
:102F6000002A03DA504244F40054039044F002046F
:102F7000761C30782E2816D116F8010F44F0040480
:102F80002A280DD06FF02F023078A0F13003092BE2
:102F900009D807EB870302EB4303C718761CF3E756
:102FA00058F8047B761C30786C280FD006DC4C284F
:102FB00017D068280DD06A2814D104E0742810D0E6
:102FC0007A280FD10DE044F400140AE044F4801490
:102FD00001E044F440147278824202D104F5801476
:102FE000761C761C307866280BD013DC582877D0F6
:102FF00009DC002875D04528F6D04628F4D04728AB
:103000001AD193E118E0632835D0642879D0652877
:1030100012D18BE1702873D008DC6728F1D06928C1
:103020006FD06E280DD06F2806D1ACE073282CD05D
:10303000752874D0782853D05246179990476D1C44
:1030400054E1C4F30250022809D003280DD0D8F867
:10305000001004280DD00D6008F1040846E1D8F8EE
:103060000010EA17C1E90052F6E7D8F800100D8009
:10307000F2E70D70F0E718F8041B8DF8001000203F
:103080008DF80100EB46012003E058F804BB4FF037
:10309000FF3061074FF0000102D40DE009F101019A
:1030A0008946B9420FDA8145F8DB1BF8091000297F
:1030B000F4D108E009F1010189468142FADB1BF8ED
:1030C00009100029F6D103985346A0EB09072146C1
:1030D0003846179A00F080FA284400EB090507E00B
:1030E00044E008E10DE01BF8010B524617999047A8
:1030F000B9F10109F7D2534621463846179AF2E052
:1031000039E00A21C4F302524FF0000B0091022A69
:1031100006D058F8040BC117032A09D00AE023E0AF
:1031200008F1070020F00702F2E80201904605E0EE
:1031300000B2C117042A01D140B2C117002906DA32
:103140000A460021404261EB02012D2202E02205E5
:1031500004D52B228DF80420012203E0E20701D0E0
:103160002022F7E7914657E00A2100E010214FF0B6
:10317000000B00910BE010214FF0000B44F0040411
:103180000827009103E008204FF0000B0090C4F3E3
:103190000252022A05D058F8040B0021032A08D055
:1031A00008E008F1070020F00702F2E8020190466B
:1031B00003E080B2042A00D1C0B24FF00009220718
:1031C0002AD53278702A07D0DDF800C08CF0100CB8
:1031D0005CEA0B0C05D00EE040228DF804200122A1
:1031E00008E050EA010306D030238DF804308DF852
:1031F000052002229146009B83F0080353EA0B034B
:103200000AD150EA010201D1620705D530228DF8BA
:1032100004204FF001097F1E3278582A04D039A2C9
:103220000C920CAA02920BE03BA2F9E75B46009AD3
:10323000FDF7DCFA0C9B9B5C029A521E0292137003
:1032400050EA0102F2D1029804A9081A00F1200BF9
:10325000600702D524F4803400E001275F4502DDD9
:10326000A7EB0B0000E0002000EB0B01009003989F
:103270004944401A0390E00306D453462146179A66
:10328000039800F0A9F90544002706E001A852467A
:10329000C05D179990476D1C7F1C4F45F6DBE0031E
:1032A0000CD553462146179A039800F095F905442A
:1032B00004E030205246179990476D1C0099481E33
:1032C00000900029F5DC08E0029802995246007847
:1032D000491C0291179990476D1CBBF10001ABF19D
:1032E000010BF1DC5BE100F065F90544761C3078F8
:1032F00000287FF40DAE19B02846BDE8F08F00001D
:1033000009280100303132333435363738396162BB
:10331000636465660000000030313233343536377F
:10332000383941424344454600000000600700D45C
:10333000062708F1070020F00700F0E80223804686
:1033400003F0004C5FEA0C0001D097A009E02005D3
:1033500001D596A005E0E00701D095A001E0AFF20D
:103360004C001390307823F0004365280CD006DC25
:10337000452809D046281DD047287FD13BE0662844
:1033800018D067287AD136E00021112F01DB1120F7
:1033900000E0781CCDE9000104A90CA8FFF7EEFCC1
:1033A000DDE90D010C9A4FF0000B07F101091092B5
:1033B00000914EE04FF000400097CDE9011004A9C4
:1033C0000CA8FFF7DBFCDDE90D020C9B0F994FF019
:1033D000000B91461093009211B9791C00EB010982
:1033E000B7EB090003D4C0F1FF3B07F10109A9EBDA
:1033F0000700019042E0012F00DA01270021112F80
:1034000001DD112000E03846CDE9000104A90CA837
:10341000FFF7B4FCDDE90D010C9A00914FF0000BB1
:10342000B946109221070FD4009A4A4503DA914613
:1034300001E0A9F10109B9F1010F05DD109AA9F127
:103440000101515C3029F4D0B84202DA10F1040FC6
:1034500003DA0121CDE9011010E0002803DC8344E8
:10346000A9EB000102E0411C494500DD8946A0EBC3
:103470000B00401C01904FF000400290200705D443
:103480000198484502DB4FF0FF30019000208DF895
:103490004B0002980DF14B07B0F1004F25D00220F0
:1034A0000C902B200D90029800280CDA40420290DC
:1034B0002D200D9007E00A210298FDF781F93031A7
:1034C000029007F8011D0C99481E0C900029F2DCAF
:1034D00002980028EFD1791E0D980870307800F01E
:1034E000200040F0450007F8020D11A8C01BC01DC8
:1034F00002901398007800B1012000EB09010198B7
:1035000001EBE071029801440398401A401E0390B9
:10351000E00306D453462146179A039800F05CF85E
:1035200005441398007818B15246179990476D1CBE
:10353000E00323D553462146179A039800F04CF830
:1035400005441BE0BBF1000F07DB0098584504DD84
:103550001098179910F80B0001E017993020524687
:10356000904701980BF1010B401E05F101050190F8
:1035700004D12E205246179990476D1CB9F10001D5
:10358000A9F10109DEDC05E017F8010B5246179995
:1035900090476D1C0299481E02900029F4DC5346A6
:1035A0002146179A03989EE62D0000002B0000008C
:1035B000200000002DE9F041044600251E46174674
:1035C000880404D405E039462020B0476D1C641EF1
:1035D000F9D52846BDE8F0812DE9F04104460025E3
:1035E0001E469046C80301D5302700E020278804F6
:1035F00004D505E041463846B0476D1C641EF9D538
:103600002846BDE8F0810A68531C0B6010707047B3
:1036100010B5044603E04FF47A7000F005F8201E60
:10362000A4F10104F7D110BD70B503460F4E3678F2
:1036300006FB03F44FF0E026B16900200022756913
:1036400010E04FF0E026B06988420BD0884202D2E9
:103650000E1A324402E02E1A0E4432440146A242AF
:1036600000D300E0EDE700BF70BD00001C000020AB
:10367000FFF7CAF9FFF786F9FDF7C6FFFEF71EFD53
:10368000FEF7A1FBFEF733FCFEF71CFFFFF7F8F98E
:1036900001E0FFF71DFAFCE72DE9F04D1D460C4651
:1036A00098B0174621F0004123F00043002814BFD2
:1036B0004FF0010C4FF0000C0CEB440CFE4A0CEBED
:1036C00002064FEA620C66452BD33E0018BF012666
:1036D00006EB45061644F94A964222D3F84A53EAC5
:1036E000070C02D0944205D148B918B00020114609
:1036F000BDE8F08D002808BF4FF0000C01D04FF05E
:10370000010C0CEB440212F5001F0AD8002F14BF65
:103710004FF0010C4FF0000C0CEB450212F5001FAE
:1037200007D918B03A462B462146BDE8F04DFFF7C1
:10373000F7BA0022DFF88CA3002CB8BF534526DA75
:10374000DFF884C36345A8BF022220DADFF870C324
:103750009C451CDCDFF874C30CEB235CBCF1140F3C
:1037600008DDCCF1340627FA06FC0CFA06F6BE4258
:103770000DD108E05FB9CCF1140623FA06FC0CFA6F
:1037800006F69E4203D10CF00102C2F1020251EA98
:10379000000C19D1002D17DA002C18BF022A01D015
:1037A000012A07D00220FFF7E3FA18B0BDE8F04D78
:1037B000FFF7AEBA0220FFF7DBFAFFF7A9FA18B05D
:1037C00081F00041BDE8F08DB7F1000C6CD153459C
:1037D00025D104F1804212F5801201BF002800209B
:1037E000B74918B008BFBDE8F08DB548884207DC7E
:1037F000002DA1BF6046294618B0BDE8F08D07E056
:10380000281E05DA80F0004118B06046BDE8F08D52
:10381000AF497944D1E9000118B0BDE8F08DDFF877
:10382000A0C2634525D1002D1FDA19B1514512D12F
:10383000D8B909E0002840F0EC82A24A214618B02D
:1038400062F31E01BDE8F08D0020214618B060F340
:103850001E01BDE8F08D08DA18B02346BDE8F04D32
:10386000024600206146FCF7E1BE18B02146BDE8E3
:10387000F08D514518DAB5F1804F0DD0A5F1005CFF
:10388000BCF1FF5C10D1B4F1000C0DDB18B0614647
:10389000BDE8F04D00F0ECBB234618B00246BDE891
:1038A000F04D1946FCF750BE060024F0004C3BD109
:1038B000D9B1514533D1002C06DD002DA1BF002028
:1038C000514618B0BDE8F08D002C01DD002D1BDB4A
:1038D000002C13DA002D11DB012A4FF0000014BF79
:1038E00078497C4918B0BDE8F08D022A18BF002C39
:1038F0000AD0012A08D1002C06DA0AE0002CB8BF51
:10390000002D11DA012A04D0002018B00146BDE8CC
:10391000F08D18B000204FF00041BDE8F08DA1F10E
:103920004050B0F17F601AD0012000EBE47050EA03
:10393000020421D0624C521E4FF0000B104304BF12
:103940004FF0000B644C654883427CDD644A654857
:1039500093421FDD884217DB002D25DB37E0002C6A
:1039600000DA4AB1022A0CBF01204FF0FF3018B034
:10397000BDE8F04DFCF7CEBE0120FFF7F9F918B015
:10398000BDE8F04DFFF7CEB94D4A8A4202DC002D6A
:103990000ADC1CE0814202DA002D18DA04E0484B10
:1039A000994220DD002D12DD0220FFF7E1F9FFF73B
:1039B000BFF905460E460022534658462146FCF7FD
:1039C000C3FD18B066F31E012846BDE8F08D022045
:1039D000FFF7CEF9FFF7B4F90A46214618B062F3B3
:1039E0001E01BDE8F08D002230466146FCF7A6FDC1
:1039F00080460E466FF00102FDF73AF84FF055325F
:103A0000394BFCF79EFD42463346FCF79DFD0022F4
:103A1000364BFCF796FD82464246334604911046EB
:103A20001946FCF791FD5246049BFCF78DFD8A4632
:103A300000904FF0C0422E4B40463146FCF784FDCB
:103A40002C4A2B4B00E027E0CDE9060151460098B7
:103A5000FCF77AFD82460191274A284B40463146C1
:103A6000FCF772FD5246019BFCF768FD82460B464F
:103A700002460591DDE90601FCF7BFFCDDE90623FE
:103A8000002688463046FCF759FD5246059BFCF758
:103A900058FD024600F07EB90020B1F5801F07DA1C
:103AA000352230466146FCF7E3FF06466FF03400EE
:103AB00000EB215024E00000FFFF1F00FFFF0F007C
:103AC0000000F03F0000F07F0000404301FCFFFFDA
:103AD000F21100000000F0FF0000F0BF0000E04124
:103AE0000000F043FFFFEF3F5555D53F0000E03F9A
:103AF0004715F73FFE822B6544DF5DF80BAE543E61
:103B0000A0F2FF300190C1F3130040F07F6141F05B
:103B100040510291FE498842D8BF002004DDFD4992
:103B20008142C8BF012001DD0D9008E000200D900A
:103B30000198401C01900298A0F580100290029913
:103B4000F54878440B910D9900EBC100D0E90023B2
:103B50000F9330460A920B99FCF7F0FCCDE9060171
:103B6000DDE90A2130460F9BFCF747FC02460B4675
:103B70000020EA49FCF75AFD059102460B460090E9
:103B8000DDE90601FCF7E0FC1490E5488A464FF0B9
:103B9000000878440299006812904FF0005040EA03
:103BA00061010D980F9B01EB804000F50021099108
:103BB0000A9A1298FCF7C2FC32460B9BFCF7C1FC38
:103BC00042465346FCF7C0FC064602914046514629
:103BD000099B129AFCF7B8FCDDE90623FCF7B1FC5F
:103BE0003246029BFCF7AAFC059B009AFCF7ACFC52
:103BF0000091149A0490534610461946FCF7A4FC11
:103C000006460246C7480B46029106217844FFF754
:103C100029F8CDE90510029B324610461946FCF7FB
:103C200093FCDDE90532FCF78FFC0591064653460F
:103C300040461946149AFCF7E0FB009B049AFCF7F7
:103C400083FC3246059BFCF7D8FBCDE905104246C4
:103C5000534610461946FCF777FC0022B24B0291FE
:103C60000A90FCF7CAFBDDE90532FCF7C6FB0E46FD
:103C70004246AD4B4046FCF761FC029B0A9AFCF7BA
:103C80005DFCDDE90532FCF75CFC424602910A90DE
:103C9000334610465146FCF757FCCDE90601534622
:103CA000149A02990A98FCF74FFC8A460290334610
:103CB000424600990498FCF747FC5346029AFCF7E9
:103CC0009CFB82460B4602460591DDE90601FCF7A6
:103CD00094FBDDE90623002088460646FCF72EFC0F
:103CE0005246059BFCF72DFC824609914FF060423D
:103CF0008E4B30464146FCF727FC049006918C4AD7
:103D00008A4B50460999FCF71FFC82460291894A6A
:103D1000894B30464146FCF717FC5246029BFCF7A4
:103D20006CFB864B7B440D9A03EBC203D3E9002363
:103D3000FCF763FB0E9007910198FCF7EBFC0591F3
:103D4000DDE9061382460E9A0498FCF756FB7C4A7E
:103D50007A440D9B02EBC303D3E900230093029244
:103D6000FCF74BFB5246059BFCF747FB00268846B9
:103D700052463046059BFCF7E1FB009B029AFCF79C
:103D8000DDFB069B049AFCF7D9FB079B0E9AFCF718
:103D9000D8FB024600200B46029038462946FCF725
:103DA000D3FB824601912B4638461946029AFCF70E
:103DB000C5FB32464346FCF7C7FB5246019BFCF766
:103DC0001CFB07468A463246434629460298FCF7C2
:103DD000BBFB05460E463A465346FCF70EFB594AD6
:103DE0008846914221DBA8EB020353EA000210D17E
:103DF0002A463346FCF7A2FBCDE90401524A534B55
:103E000038465146FCF7F9FADDE90423FCF7C0FC1B
:103E100021D20220FEF7ACFFFEF78AFF0A462146B8
:103E200018B062F31E01BDE8F08D494B28F0004246
:103E30009A4210D3474A08EB020353EA00027FF488
:103E4000C6AD2A463346FCF779FB3A465346FCF7A3
:103E50009FFC7FF6BCAD0022019228F000403E4955
:103E60003E4A01EB2051824223DA481C4FF4801174
:103E700021FA00F040443A4AC0F30A517A44394BDF
:103E8000A1F2FF31CB4020EA0303C0F3130040F45A
:103E90008010C1F11401C84012680190B8F1000F00
:103EA000BCBF4042019028463146FCF747FB05461F
:103EB0000E462A46334638465146FCF79EFA4FF0E6
:103EC00000084246284B40460591FCF73DFBCDE9F2
:103ED0000601264A264B40460599FCF735FB009122
:103EE00002902A46334640460599FCF727FB3A469E
:103EF0005346FCF726FB1F4A1F4BFCF725FB009B94
:103F0000029AFCF77AFA0746884602460B4635E0E5
:103F10008E9803007AB60B002A0E00000000F03FD6
:103F2000720E0000900D00000000084009C7EE3F2F
:103F3000FD033ADCF5015B14E02F3EBE680C000087
:103F40002C0C000000009040FE822B654715973C2A
:103F500000CC904000346F3F01FCFFFF0000E03FC9
:103F6000880B0000FFFF0F00432EE63F396CA80CC2
:103F7000615C20BEEF39FAFE422EE63FDDE9060124
:103F8000FCF73BFADDE9062305460E46FCF7D6FAB8
:103F90003A464346FCF7D5FA0F462A463346009088
:103FA00010461946FCF7D0FA824602462E4888464B
:103FB0000B4605217844FEF755FE52464346FCF772
:103FC000C3FA2A463346FCF7BCFA80468A463B468B
:103FD00028463146009AFCF7B7FA3B46009AFCF7B0
:103FE0000CFA0691009000224FF080434046514663
:103FF000FCF7A4FA0F460C90424653462846314639
:10400000FCF7A2FA3B460C9AFCF710FB069B009AC1
:10401000FCF794FA2A463346FCF790FA0022134B39
:10402000FCF78FFA054601980E4601EB0051081582
:10403000002810DC28463146019AFCF719FDFEF7EE
:10404000FDFD042808BFFEF77BFE28463146019A95
:10405000FCF70EFD05460B4618B02A465846214689
:10406000BDE8F04DFCF770BA180A00000000F03F00
:104070002DE9F04106460F46FCF711FD041E0D46E2
:1040800018BF0120284320F00040C0F17F6000F1FC
:10409000E040C00F0ED0301C18BF0120384320F084
:1040A0000040C0F17F6000F1E040C00F04BF01207C
:1040B000FEF75EFE20462946BDE8F08100000000C4
:1040C000000000000000000000000000000000F8F8
:1040D00000000000000000333000000000160E0059
:1040E000160E0000000000000000000040C07840F4
:1040F000C0784000043F04043F040400007088FCC2
:1041000008300000001820FF211E0000F008F00019
:10411000E018000000211C031E211E0000F008888A
:10412000700000001E212324192721100000001612
:104130000E0000000000000000000000000000E091
:1041400018040200000000071820400000020418B4
:10415000E00000000040201807000000404080F010
:10416000804040000202010F01020200000000F046
:10417000000000000101011F01010100000000001A
:104180000000000000B0700000000000000000000F
:104190000000000000010101010101010000000018
:1041A00000000000003030000000000000000000AF
:1041B00080601804006018060100000000E010088C
:1041C0000810E000000F102020100F00001010F861
:1041D000000000000020203F2020000000700808A0
:1041E0000888700000302824222130000030088820
:1041F000884830000018202020110E000000C02048
:1042000010F8000000070424243F240000F8088868
:10421000880808000019212020110E0000E01088F5
:1042200088180000000F112020110E000038080827
:10423000C83808000000003F000000000070880837
:1042400008887000001C222121221C0000E01008B8
:104250000810E0000000312222110F00000000C011
:10426000C00000000000003030000000000000C06E
:10427000C0000000000080B070000000000080401E
:1042800020100800000102040810200040404040B7
:10429000404040000404040404040400000810200A
:1042A000408000000020100804020100007048084F
:1042B0000808F0000000003036010000C030C828B7
:1042C000E810E0000718272423140B000000C03872
:1042D000E0000000203C23020227382008F88888EC
:1042E00088700000203F202020110E00C0300808F8
:1042F00008083800071820202010080008F80808CF
:104300000810E000203F202020100F0008F88888C7
:10431000E8081000203F20202320180008F8888893
:10432000E8081000203F200003000000C03008080B
:104330000838000007182020221E020008F8080094
:104340000008F808203F210101213F20000808F85B
:10435000080800000020203F20200000000008087E
:10436000F8080800C08080807F00000008F888C03E
:1043700028180800203F20012638200008F80800EF
:1043800000000000203F20202020300008F8F80026
:10439000F8F80800203F003F003F200008F830C038
:1043A0000008F808203F200007183F00E010080828
:1043B0000810E0000F10202020100F0008F8080857
:1043C0000808F000203F210101010000E01008086A
:1043D0000810E0000F18242438504F0008F888888F
:1043E00088887000203F2000030C3020007088086F
:1043F000080838000038202121221C00180808F87D
:10440000080818000000203F2000000008F80800FD
:104410000008F808001F202020201F0008788800CE
:1044200000C83808000007380E010000F80800F83E
:104430000008F800033C0700073C030008186880E8
:104440008068180820302C03032C30200838C8005E
:10445000C83808000000203F2000000010080808AD
:10446000C83808002038262120201800000000FE4F
:10447000020202000000007F40404000000C30C0FB
:1044800000000000000000010638C0000002020227
:10449000FE000000004040407F00000000201008A7
:1044A00004081020000000000000000000000000D0
:1044B00000000000808080808080808000020408EE
:1044C00000000000000000000000000000008080EC
:1044D000808000000019242222223F2008F800805A
:1044E00080000000003F112020110E00000000801D
:1044F00080800000000E11202020110000000080AC
:104500008088F800000E112020103F2000008080DD
:1045100080800000001F222222221300008080F0F1
:10452000888888180020203F20200000000080801C
:1045300080808000006B94949493600008F8008061
:1045400080800000203F210000203F2000809898BC
:10455000000000000020203F20200000000000801C
:104560009898000000C08080807F000008F800005C
:1045700080808000203F24022D302000000808F8B1
:10458000000000000020203F20200000808080806C
:1045900080808000203F20003F20003F008080007E
:1045A0008080000000203F2100203F20000080800C
:1045B00080800000001F202020201F0080800080BD
:1045C0008000000080FFA12020110E00000000806C
:1045D00080808000000E112020A0FF80808080005D
:1045E0008080800020203F2120000100000080808A
:1045F000808080000033242424241900008080E07F
:10460000808000000000001F20200000808000004B
:1046100000808000001F202020103F20808080002C
:104620000080808000010E3008060100808000803C
:10463000008080800F300C030C300F000080800061
:10464000808080000020312E0E312000808080008C
:104650000080808080818E7018060100008080803C
:10466000808080000021302C2221300000000000DA
:10467000807C020200000000003F4040000000007B
:10468000FF00000000000000FF0000000002027CAC
:10469000800000000040403F0000000000804040DB
:1046A0008000008000000000000101000000000008
:1046B00000000000002F00000000070007000014A9
:1046C0007F147F1400242A7F2A12002313086462B7
:1046D00000364955225000000007000000001C224F
:1046E0004100000041221C000014083E081400088C
:1046F000083E0808000000A060000008080808083C
:10470000000060600000002010080402003E5149D3
:10471000453E0000427F4000004261514946002171
:1047200041454B31001814127F100027454545398B
:10473000003C4A49493000017109050300364949E6
:10474000493600064949291E00003636000000009F
:1047500056360000000814224100001414141414EA
:10476000000041221408000201510906003E49558B
:10477000592E007C1211127C007F49494936003EB7
:1047800041414122007F4141221C007F494949416A
:10479000007F09090901003E4149497A007F080864
:1047A000087F0000417F4100002040413F01007F21
:1047B00008142241007F40404040007F020C027FED
:1047C000007F0408107F003E4141413E007F0909FF
:1047D0000906003E4151215E007F09192946004625
:1047E000494949310001017F0101003F4040403FFC
:1047F000001F2040201F003F4038403F0063140846
:104800001463000708700807006151494543000020
:104810007F414100000204081020000041417F0058
:104820000004020102040040404040400000010238
:104830000400002054545478007F48444438003821
:104840004444442000384444487F003854545418A9
:1048500000087E0901020018A4A4A47C007F0804BB
:1048600004780000447D4000004080847D00007F8B
:10487000102844000000417F4000007C04180478A8
:10488000007C0804047800384444443800FC2424A4
:1048900024180018242418FC007C0804040800488C
:1048A0005454542000043F444020003C4040207CAD
:1048B000001C2040201C003C4030403C004428109C
:1048C0002844001CA0A0A07C004464544C44000078
:1048D000087F41000000007F00000000417F0800C9
:1048E000000804081008A3AC00000000000000004D
:1048F0000000000000000000000000583800000028
:10490000000000000000000000A1A3000000000063
:10491000000000000000000000000000000018245B
:10492000241800000000000000000000000000FF4C
:104930000101013109090909897101010101FFFF23
:104940008080808080809681808080808080FFFF52
:1049500001818181FD8991A1C1FD81818101FFFFDB
:10496000808080809F888482819F80808080FF00FB
:10497000000000000000F03F000000000000F83FD1
:1049800000000000000000000000004003B8E23F0B
:10499000000000000000000006D0CF43EBFD4C3EBD
:1049A000033333333333E33FFFAB6FDBB66DDB3FB2
:1049B0004D268F515555D53F01411DA96074D13FFA
:1049C00065DBC9934A86CD3FEF4E454A287ECA3FF4
:1049D0003E5555555555C53F93BDBE166CC166BF76
:1049E0002CDE25AF6A56113FF16BD2C541BDBBBE6F
:1049F000D0A4BE726937663E1F1C1F1E1F1E1F1FDC
:104A00001E1F1E1F0000000000000000000000002C
:104A10001F1D1F1E1F1E1F1F1E1F1E1F3C4A00089A
:104A20000000002094000000502D0008D04A00082B
:104A30009400002034110000602D000800A24A04F8
:104A4000000000000000000001020304060708093E
:104A500000000000000000000000E9070900040059
:104A600015002800370000000000000000000000D2
:104A70000000000000000000000000000000000036
:104A80000000000000000000000000000000000026
:104A90000000000000000000000000000000000016
:104AA00099180008B9190008A119000800000000B1
:104AB00000000000000000000000000000000000F6
:104AC00000000000000000000000000000000000E6
:04000005080000ED02
:00000001FF
